{
  "_format": "hh-sol-artifact-1",
  "contractName": "Upload",
  "sourceName": "contracts/Upload.sol",
  "abi": [
    {
      "anonymous": false,
      "inputs": [
        {
          "indexed": false,
          "internalType": "string",
          "name": "caseID",
          "type": "string"
        }
      ],
      "name": "CaseAdded",
      "type": "event"
    },
    {
      "inputs": [
        {
          "internalType": "string",
          "name": "caseID",
          "type": "string"
        },
        {
          "internalType": "string",
          "name": "CID",
          "type": "string"
        }
      ],
      "name": "addCase",
      "outputs": [
        {
          "internalType": "bool",
          "name": "",
          "type": "bool"
        }
      ],
      "stateMutability": "nonpayable",
      "type": "function"
    },
    {
      "inputs": [
        {
          "internalType": "address",
          "name": "user",
          "type": "address"
        },
        {
          "internalType": "string",
          "name": "caseID",
          "type": "string"
        }
      ],
      "name": "allowAccess",
      "outputs": [],
      "stateMutability": "nonpayable",
      "type": "function"
    },
    {
      "inputs": [
        {
          "internalType": "address",
          "name": "user",
          "type": "address"
        },
        {
          "internalType": "string",
          "name": "caseID",
          "type": "string"
        }
      ],
      "name": "disallowAccess",
      "outputs": [],
      "stateMutability": "nonpayable",
      "type": "function"
    },
    {
      "inputs": [
        {
          "internalType": "address",
          "name": "user",
          "type": "address"
        }
      ],
      "name": "displayCases",
      "outputs": [
        {
          "internalType": "string[]",
          "name": "",
          "type": "string[]"
        }
      ],
      "stateMutability": "view",
      "type": "function"
    },
    {
      "inputs": [
        {
          "internalType": "string",
          "name": "caseID",
          "type": "string"
        }
      ],
      "name": "getCaseData",
      "outputs": [
        {
          "internalType": "string[]",
          "name": "",
          "type": "string[]"
        }
      ],
      "stateMutability": "view",
      "type": "function"
    },
    {
      "inputs": [
        {
          "internalType": "string",
          "name": "caseID",
          "type": "string"
        }
      ],
      "name": "getUsersWithAccess",
      "outputs": [
        {
          "internalType": "address[]",
          "name": "",
          "type": "address[]"
        }
      ],
      "stateMutability": "view",
      "type": "function"
    }
  ],
  "bytecode": "0x608060405234801561001057600080fd5b506117c8806100206000396000f3fe608060405234801561001057600080fd5b50600436106100625760003560e01c80632b8d26d81461006757806348f59c4114610083578063607076fe1461009f57806375e8896a146100cf5780638953ae08146100ff57806389e4caf41461012f575b600080fd5b610081600480360381019061007c9190610e8d565b61015f565b005b61009d60048036038101906100989190610e8d565b610240565b005b6100b960048036038101906100b49190610ee9565b610382565b6040516100c69190611073565b60405180910390f35b6100e960048036038101906100e49190611095565b6104c4565b6040516100f69190611073565b60405180910390f35b610119600480360381019061011491906110c2565b6107b0565b6040516101269190611155565b60405180910390f35b61014960048036038101906101449190610ee9565b610971565b604051610156919061122e565b60405180910390f35b61016881610a65565b6101a7576040517f08c379a000000000000000000000000000000000000000000000000000000000815260040161019e906112d3565b60405180910390fd5b6000816040516101b7919061132f565b908152602001604051809103902060010160008373ffffffffffffffffffffffffffffffffffffffff1673ffffffffffffffffffffffffffffffffffffffff16815260200190815260200160002060006101000a81549060ff021916905561023c600182604051610228919061132f565b908152602001604051809103902083610ad9565b5050565b61024981610a65565b610288576040517f08c379a000000000000000000000000000000000000000000000000000000000815260040161027f906112d3565b60405180910390fd5b600160008260405161029a919061132f565b908152602001604051809103902060010160008473ffffffffffffffffffffffffffffffffffffffff1673ffffffffffffffffffffffffffffffffffffffff16815260200190815260200160002060006101000a81548160ff02191690831515021790555060018160405161030f919061132f565b9081526020016040518091039020829080600181540180825580915050600190039060005260206000200160009091909190916101000a81548173ffffffffffffffffffffffffffffffffffffffff021916908373ffffffffffffffffffffffffffffffffffffffff1602179055505050565b606061038d82610a65565b6103cc576040517f08c379a00000000000000000000000000000000000000000000000000000000081526004016103c3906112d3565b60405180910390fd5b6000826040516103dc919061132f565b9081526020016040518091039020600001805480602002602001604051908101604052809291908181526020016000905b828210156104b957838290600052602060002001805461042c90611375565b80601f016020809104026020016040519081016040528092919081815260200182805461045890611375565b80156104a55780601f1061047a576101008083540402835291602001916104a5565b820191906000526020600020905b81548152906001019060200180831161048857829003601f168201915b50505050508152602001906001019061040d565b505050509050919050565b60606000805b6002805490508110156105a857610587600282815481106104ee576104ed6113a6565b5b90600052602060002001805461050390611375565b80601f016020809104026020016040519081016040528092919081815260200182805461052f90611375565b801561057c5780601f106105515761010080835404028352916020019161057c565b820191906000526020600020905b81548152906001019060200180831161055f57829003601f168201915b505050505085610c60565b1561059b5781806105979061140e565b9250505b80806001019150506104ca565b5060008167ffffffffffffffff8111156105c5576105c4610d62565b5b6040519080825280602002602001820160405280156105f857816020015b60608152602001906001900390816105e35790505b5090506000915060005b6002805490508110156107a5576106bf60028281548110610626576106256113a6565b5b90600052602060002001805461063b90611375565b80601f016020809104026020016040519081016040528092919081815260200182805461066790611375565b80156106b45780601f10610689576101008083540402835291602001916106b4565b820191906000526020600020905b81548152906001019060200180831161069757829003601f168201915b505050505086610c60565b1561079857600281815481106106d8576106d76113a6565b5b9060005260206000200180546106ed90611375565b80601f016020809104026020016040519081016040528092919081815260200182805461071990611375565b80156107665780601f1061073b57610100808354040283529160200191610766565b820191906000526020600020905b81548152906001019060200180831161074957829003601f168201915b505050505082848151811061077e5761077d6113a6565b5b602002602001018190525082806107949061140e565b9350505b8080600101915050610602565b508092505050919050565b600080836040516107c1919061132f565b9081526020016040518091039020600001829080600181540180825580915050600190039060005260206000200160009091909190915090816108049190611602565b506001600084604051610817919061132f565b908152602001604051809103902060010160003373ffffffffffffffffffffffffffffffffffffffff1673ffffffffffffffffffffffffffffffffffffffff16815260200190815260200160002060006101000a81548160ff02191690831515021790555060018360405161088c919061132f565b9081526020016040518091039020339080600181540180825580915050600190039060005260206000200160009091909190916101000a81548173ffffffffffffffffffffffffffffffffffffffff021916908373ffffffffffffffffffffffffffffffffffffffff1602179055507fc7b8e4ae6ef6766cff739ac1a30a0c3fb3b336d7f294d61c8a6890b0c44238268360405161092a919061170d565b60405180910390a16002839080600181540180825580915050600190039060005260206000200160009091909190915090816109669190611602565b506001905092915050565b606061097c82610a65565b6109bb576040517f08c379a00000000000000000000000000000000000000000000000000000000081526004016109b2906112d3565b60405180910390fd5b6001826040516109cb919061132f565b9081526020016040518091039020805480602002602001604051908101604052809291908181526020018280548015610a5957602002820191906000526020600020905b8160009054906101000a900473ffffffffffffffffffffffffffffffffffffffff1673ffffffffffffffffffffffffffffffffffffffff1681526020019060010190808311610a0f575b50505050509050919050565b60008082604051610a76919061132f565b908152602001604051809103902060010160003373ffffffffffffffffffffffffffffffffffffffff1673ffffffffffffffffffffffffffffffffffffffff16815260200190815260200160002060009054906101000a900460ff169050919050565b60005b8280549050811015610c5a578173ffffffffffffffffffffffffffffffffffffffff16838281548110610b1257610b116113a6565b5b9060005260206000200160009054906101000a900473ffffffffffffffffffffffffffffffffffffffff1673ffffffffffffffffffffffffffffffffffffffff1603610c4d578260018480549050610b6a919061172f565b81548110610b7b57610b7a6113a6565b5b9060005260206000200160009054906101000a900473ffffffffffffffffffffffffffffffffffffffff16838281548110610bb957610bb86113a6565b5b9060005260206000200160006101000a81548173ffffffffffffffffffffffffffffffffffffffff021916908373ffffffffffffffffffffffffffffffffffffffff16021790555082805480610c1257610c11611763565b5b6001900381819060005260206000200160006101000a81549073ffffffffffffffffffffffffffffffffffffffff0219169055905550610c5c565b8080600101915050610adc565b505b5050565b60008083604051610c71919061132f565b908152602001604051809103902060010160008373ffffffffffffffffffffffffffffffffffffffff1673ffffffffffffffffffffffffffffffffffffffff16815260200190815260200160002060009054906101000a900460ff16905092915050565b6000604051905090565b600080fd5b600080fd5b600073ffffffffffffffffffffffffffffffffffffffff82169050919050565b6000610d1482610ce9565b9050919050565b610d2481610d09565b8114610d2f57600080fd5b50565b600081359050610d4181610d1b565b92915050565b600080fd5b600080fd5b6000601f19601f8301169050919050565b7f4e487b7100000000000000000000000000000000000000000000000000000000600052604160045260246000fd5b610d9a82610d51565b810181811067ffffffffffffffff82111715610db957610db8610d62565b5b80604052505050565b6000610dcc610cd5565b9050610dd88282610d91565b919050565b600067ffffffffffffffff821115610df857610df7610d62565b5b610e0182610d51565b9050602081019050919050565b82818337600083830152505050565b6000610e30610e2b84610ddd565b610dc2565b905082815260208101848484011115610e4c57610e4b610d4c565b5b610e57848285610e0e565b509392505050565b600082601f830112610e7457610e73610d47565b5b8135610e84848260208601610e1d565b91505092915050565b60008060408385031215610ea457610ea3610cdf565b5b6000610eb285828601610d32565b925050602083013567ffffffffffffffff811115610ed357610ed2610ce4565b5b610edf85828601610e5f565b9150509250929050565b600060208284031215610eff57610efe610cdf565b5b600082013567ffffffffffffffff811115610f1d57610f1c610ce4565b5b610f2984828501610e5f565b91505092915050565b600081519050919050565b600082825260208201905092915050565b6000819050602082019050919050565b600081519050919050565b600082825260208201905092915050565b60005b83811015610f98578082015181840152602081019050610f7d565b60008484015250505050565b6000610faf82610f5e565b610fb98185610f69565b9350610fc9818560208601610f7a565b610fd281610d51565b840191505092915050565b6000610fe98383610fa4565b905092915050565b6000602082019050919050565b600061100982610f32565b6110138185610f3d565b93508360208202850161102585610f4e565b8060005b8581101561106157848403895281516110428582610fdd565b945061104d83610ff1565b925060208a01995050600181019050611029565b50829750879550505050505092915050565b6000602082019050818103600083015261108d8184610ffe565b905092915050565b6000602082840312156110ab576110aa610cdf565b5b60006110b984828501610d32565b91505092915050565b600080604083850312156110d9576110d8610cdf565b5b600083013567ffffffffffffffff8111156110f7576110f6610ce4565b5b61110385828601610e5f565b925050602083013567ffffffffffffffff81111561112457611123610ce4565b5b61113085828601610e5f565b9150509250929050565b60008115159050919050565b61114f8161113a565b82525050565b600060208201905061116a6000830184611146565b92915050565b600081519050919050565b600082825260208201905092915050565b6000819050602082019050919050565b6111a581610d09565b82525050565b60006111b7838361119c565b60208301905092915050565b6000602082019050919050565b60006111db82611170565b6111e5818561117b565b93506111f08361118c565b8060005b8381101561122157815161120888826111ab565b9750611213836111c3565b9250506001810190506111f4565b5085935050505092915050565b6000602082019050818103600083015261124881846111d0565b905092915050565b600082825260208201905092915050565b7f596f7520646f6e277420686176652061636365737320746f207468697320636160008201527f7365000000000000000000000000000000000000000000000000000000000000602082015250565b60006112bd602283611250565b91506112c882611261565b604082019050919050565b600060208201905081810360008301526112ec816112b0565b9050919050565b600081905092915050565b600061130982610f5e565b61131381856112f3565b9350611323818560208601610f7a565b80840191505092915050565b600061133b82846112fe565b915081905092915050565b7f4e487b7100000000000000000000000000000000000000000000000000000000600052602260045260246000fd5b6000600282049050600182168061138d57607f821691505b6020821081036113a05761139f611346565b5b50919050565b7f4e487b7100000000000000000000000000000000000000000000000000000000600052603260045260246000fd5b7f4e487b7100000000000000000000000000000000000000000000000000000000600052601160045260246000fd5b6000819050919050565b600061141982611404565b91507fffffffffffffffffffffffffffffffffffffffffffffffffffffffffffffffff820361144b5761144a6113d5565b5b600182019050919050565b60008190508160005260206000209050919050565b60006020601f8301049050919050565b600082821b905092915050565b6000600883026114b87fffffffffffffffffffffffffffffffffffffffffffffffffffffffffffffffff8261147b565b6114c2868361147b565b95508019841693508086168417925050509392505050565b6000819050919050565b60006114ff6114fa6114f584611404565b6114da565b611404565b9050919050565b6000819050919050565b611519836114e4565b61152d61152582611506565b848454611488565b825550505050565b600090565b611542611535565b61154d818484611510565b505050565b5b818110156115715761156660008261153a565b600181019050611553565b5050565b601f8211156115b65761158781611456565b6115908461146b565b8101602085101561159f578190505b6115b36115ab8561146b565b830182611552565b50505b505050565b600082821c905092915050565b60006115d9600019846008026115bb565b1980831691505092915050565b60006115f283836115c8565b9150826002028217905092915050565b61160b82610f5e565b67ffffffffffffffff81111561162457611623610d62565b5b61162e8254611375565b611639828285611575565b600060209050601f83116001811461166c576000841561165a578287015190505b61166485826115e6565b8655506116cc565b601f19841661167a86611456565b60005b828110156116a25784890151825560018201915060208501945060208101905061167d565b868310156116bf57848901516116bb601f8916826115c8565b8355505b6001600288020188555050505b505050505050565b60006116df82610f5e565b6116e98185611250565b93506116f9818560208601610f7a565b61170281610d51565b840191505092915050565b6000602082019050818103600083015261172781846116d4565b905092915050565b600061173a82611404565b915061174583611404565b925082820390508181111561175d5761175c6113d5565b5b92915050565b7f4e487b7100000000000000000000000000000000000000000000000000000000600052603160045260246000fdfea264697066735822122073e951b90f058ba7ae063cf4eb977ea8e1f8fc530db1d259dddbefa8ccd748ed64736f6c63430008180033",
  "linkReferences": {},
  "deployedLinkReferences": {}
}