{
  "_format": "hh-sol-artifact-1",
  "contractName": "Warranty",
  "sourceName": "contracts/Warranty.sol",
  "abi": [
    {
      "inputs": [],
      "stateMutability": "nonpayable",
      "type": "constructor"
    },
    {
      "inputs": [
        {
          "internalType": "address",
          "name": "user",
          "type": "address"
        }
      ],
      "name": "getWarrantyInfo",
      "outputs": [
        {
          "components": [
            {
              "internalType": "string",
              "name": "productName",
              "type": "string"
            },
            {
              "internalType": "uint256",
              "name": "warrantyPeriod",
              "type": "uint256"
            },
            {
              "internalType": "string",
              "name": "imeiNumber",
              "type": "string"
            },
            {
              "internalType": "uint256",
              "name": "warrantyStartDate",
              "type": "uint256"
            },
            {
              "internalType": "uint256",
              "name": "warrantyEndDate",
              "type": "uint256"
            },
            {
              "internalType": "string",
              "name": "additionalStatement",
              "type": "string"
            }
          ],
          "internalType": "struct Warranty.WarrantyInfo",
          "name": "",
          "type": "tuple"
        }
      ],
      "stateMutability": "view",
      "type": "function"
    },
    {
      "inputs": [],
      "name": "manufacturer",
      "outputs": [
        {
          "internalType": "address",
          "name": "",
          "type": "address"
        }
      ],
      "stateMutability": "view",
      "type": "function"
    },
    {
      "inputs": [
        {
          "internalType": "address",
          "name": "user",
          "type": "address"
        },
        {
          "internalType": "string",
          "name": "productName",
          "type": "string"
        },
        {
          "internalType": "uint256",
          "name": "warrantyPeriod",
          "type": "uint256"
        },
        {
          "internalType": "string",
          "name": "imeiNumber",
          "type": "string"
        },
        {
          "internalType": "uint256",
          "name": "warrantyStartDate",
          "type": "uint256"
        },
        {
          "internalType": "string",
          "name": "additionalStatement",
          "type": "string"
        }
      ],
      "name": "registerWarranty",
      "outputs": [],
      "stateMutability": "nonpayable",
      "type": "function"
    }
  ],
  "bytecode": "0x608060405234801561001057600080fd5b5033600160006101000a81548173ffffffffffffffffffffffffffffffffffffffff021916908373ffffffffffffffffffffffffffffffffffffffff160217905550610d60806100616000396000f3fe608060405234801561001057600080fd5b50600436106100415760003560e01c806374754282146100465780638d19bc5414610064578063cc5b45e414610094575b600080fd5b61004e6100b0565b60405161005b91906104fe565b60405180910390f35b61007e60048036038101906100799190610559565b6100d6565b60405161008b91906106c6565b60405180910390f35b6100ae60048036038101906100a99190610849565b610302565b005b600160009054906101000a900473ffffffffffffffffffffffffffffffffffffffff1681565b6100de610487565b6000808373ffffffffffffffffffffffffffffffffffffffff1673ffffffffffffffffffffffffffffffffffffffff1681526020019081526020016000206040518060c001604052908160008201805461013790610959565b80601f016020809104026020016040519081016040528092919081815260200182805461016390610959565b80156101b05780601f10610185576101008083540402835291602001916101b0565b820191906000526020600020905b81548152906001019060200180831161019357829003601f168201915b50505050508152602001600182015481526020016002820180546101d390610959565b80601f01602080910402602001604051908101604052809291908181526020018280546101ff90610959565b801561024c5780601f106102215761010080835404028352916020019161024c565b820191906000526020600020905b81548152906001019060200180831161022f57829003601f168201915b50505050508152602001600382015481526020016004820154815260200160058201805461027990610959565b80601f01602080910402602001604051908101604052809291908181526020018280546102a590610959565b80156102f25780601f106102c7576101008083540402835291602001916102f2565b820191906000526020600020905b8154815290600101906020018083116102d557829003601f168201915b5050505050815250509050919050565b600160009054906101000a900473ffffffffffffffffffffffffffffffffffffffff1673ffffffffffffffffffffffffffffffffffffffff163373ffffffffffffffffffffffffffffffffffffffff1614610392576040517f08c379a0000000000000000000000000000000000000000000000000000000008152600401610389906109e7565b60405180910390fd5b600062278d00856103a39190610a36565b836103ae9190610a78565b90506040518060c00160405280878152602001868152602001858152602001848152602001828152602001838152506000808973ffffffffffffffffffffffffffffffffffffffff1673ffffffffffffffffffffffffffffffffffffffff16815260200190815260200160002060008201518160000190816104309190610c58565b506020820151816001015560408201518160020190816104509190610c58565b50606082015181600301556080820151816004015560a082015181600501908161047a9190610c58565b5090505050505050505050565b6040518060c001604052806060815260200160008152602001606081526020016000815260200160008152602001606081525090565b600073ffffffffffffffffffffffffffffffffffffffff82169050919050565b60006104e8826104bd565b9050919050565b6104f8816104dd565b82525050565b600060208201905061051360008301846104ef565b92915050565b6000604051905090565b600080fd5b600080fd5b610536816104dd565b811461054157600080fd5b50565b6000813590506105538161052d565b92915050565b60006020828403121561056f5761056e610523565b5b600061057d84828501610544565b91505092915050565b600081519050919050565b600082825260208201905092915050565b60005b838110156105c05780820151818401526020810190506105a5565b60008484015250505050565b6000601f19601f8301169050919050565b60006105e882610586565b6105f28185610591565b93506106028185602086016105a2565b61060b816105cc565b840191505092915050565b6000819050919050565b61062981610616565b82525050565b600060c083016000830151848203600086015261064c82826105dd565b91505060208301516106616020860182610620565b506040830151848203604086015261067982826105dd565b915050606083015161068e6060860182610620565b5060808301516106a16080860182610620565b5060a083015184820360a08601526106b982826105dd565b9150508091505092915050565b600060208201905081810360008301526106e0818461062f565b905092915050565b600080fd5b600080fd5b7f4e487b7100000000000000000000000000000000000000000000000000000000600052604160045260246000fd5b61072a826105cc565b810181811067ffffffffffffffff82111715610749576107486106f2565b5b80604052505050565b600061075c610519565b90506107688282610721565b919050565b600067ffffffffffffffff821115610788576107876106f2565b5b610791826105cc565b9050602081019050919050565b82818337600083830152505050565b60006107c06107bb8461076d565b610752565b9050828152602081018484840111156107dc576107db6106ed565b5b6107e784828561079e565b509392505050565b600082601f830112610804576108036106e8565b5b81356108148482602086016107ad565b91505092915050565b61082681610616565b811461083157600080fd5b50565b6000813590506108438161081d565b92915050565b60008060008060008060c0878903121561086657610865610523565b5b600061087489828a01610544565b965050602087013567ffffffffffffffff81111561089557610894610528565b5b6108a189828a016107ef565b95505060406108b289828a01610834565b945050606087013567ffffffffffffffff8111156108d3576108d2610528565b5b6108df89828a016107ef565b93505060806108f089828a01610834565b92505060a087013567ffffffffffffffff81111561091157610910610528565b5b61091d89828a016107ef565b9150509295509295509295565b7f4e487b7100000000000000000000000000000000000000000000000000000000600052602260045260246000fd5b6000600282049050600182168061097157607f821691505b6020821081036109845761098361092a565b5b50919050565b600082825260208201905092915050565b7f4e6f7420617574686f72697a6564000000000000000000000000000000000000600082015250565b60006109d1600e8361098a565b91506109dc8261099b565b602082019050919050565b60006020820190508181036000830152610a00816109c4565b9050919050565b7f4e487b7100000000000000000000000000000000000000000000000000000000600052601160045260246000fd5b6000610a4182610616565b9150610a4c83610616565b9250828202610a5a81610616565b91508282048414831517610a7157610a70610a07565b5b5092915050565b6000610a8382610616565b9150610a8e83610616565b9250828201905080821115610aa657610aa5610a07565b5b92915050565b60008190508160005260206000209050919050565b60006020601f8301049050919050565b600082821b905092915050565b600060088302610b0e7fffffffffffffffffffffffffffffffffffffffffffffffffffffffffffffffff82610ad1565b610b188683610ad1565b95508019841693508086168417925050509392505050565b6000819050919050565b6000610b55610b50610b4b84610616565b610b30565b610616565b9050919050565b6000819050919050565b610b6f83610b3a565b610b83610b7b82610b5c565b848454610ade565b825550505050565b600090565b610b98610b8b565b610ba3818484610b66565b505050565b5b81811015610bc757610bbc600082610b90565b600181019050610ba9565b5050565b601f821115610c0c57610bdd81610aac565b610be684610ac1565b81016020851015610bf5578190505b610c09610c0185610ac1565b830182610ba8565b50505b505050565b600082821c905092915050565b6000610c2f60001984600802610c11565b1980831691505092915050565b6000610c488383610c1e565b9150826002028217905092915050565b610c6182610586565b67ffffffffffffffff811115610c7a57610c796106f2565b5b610c848254610959565b610c8f828285610bcb565b600060209050601f831160018114610cc25760008415610cb0578287015190505b610cba8582610c3c565b865550610d22565b601f198416610cd086610aac565b60005b82811015610cf857848901518255600182019150602085019450602081019050610cd3565b86831015610d155784890151610d11601f891682610c1e565b8355505b6001600288020188555050505b50505050505056fea2646970667358221220615e5c9d4e0ad495da3b9e10096282816160da4ade2a516deaaed6d48255ab1764736f6c63430008140033",
  "linkReferences": {},
  "deployedLinkReferences": {}
}