{
  "contractName": "DigitizedArt",
  "abi": [
    {
      "inputs": [
        {
          "internalType": "string",
          "name": "name",
          "type": "string"
        },
        {
          "internalType": "string",
          "name": "symbol",
          "type": "string"
        }
      ],
      "stateMutability": "nonpayable",
      "type": "constructor"
    },
    {
      "anonymous": false,
      "inputs": [
        {
          "indexed": true,
          "internalType": "address",
          "name": "owner",
          "type": "address"
        },
        {
          "indexed": true,
          "internalType": "address",
          "name": "approved",
          "type": "address"
        },
        {
          "indexed": true,
          "internalType": "uint256",
          "name": "tokenId",
          "type": "uint256"
        }
      ],
      "name": "Approval",
      "type": "event"
    },
    {
      "anonymous": false,
      "inputs": [
        {
          "indexed": true,
          "internalType": "address",
          "name": "owner",
          "type": "address"
        },
        {
          "indexed": true,
          "internalType": "address",
          "name": "operator",
          "type": "address"
        },
        {
          "indexed": false,
          "internalType": "bool",
          "name": "approved",
          "type": "bool"
        }
      ],
      "name": "ApprovalForAll",
      "type": "event"
    },
    {
      "anonymous": false,
      "inputs": [
        {
          "indexed": false,
          "internalType": "uint256",
          "name": "_tokenId",
          "type": "uint256"
        },
        {
          "indexed": false,
          "internalType": "uint256",
          "name": "_status",
          "type": "uint256"
        },
        {
          "indexed": false,
          "internalType": "uint256",
          "name": "_price",
          "type": "uint256"
        }
      ],
      "name": "LogArtResell",
      "type": "event"
    },
    {
      "anonymous": false,
      "inputs": [
        {
          "indexed": false,
          "internalType": "uint256",
          "name": "_tokenId",
          "type": "uint256"
        },
        {
          "indexed": false,
          "internalType": "string",
          "name": "_title",
          "type": "string"
        },
        {
          "indexed": false,
          "internalType": "string",
          "name": "_authorName",
          "type": "string"
        },
        {
          "indexed": false,
          "internalType": "uint256",
          "name": "_price",
          "type": "uint256"
        },
        {
          "indexed": false,
          "internalType": "address",
          "name": "_author",
          "type": "address"
        },
        {
          "indexed": false,
          "internalType": "address",
          "name": "_current_owner",
          "type": "address"
        },
        {
          "indexed": false,
          "internalType": "address",
          "name": "_buyer",
          "type": "address"
        }
      ],
      "name": "LogArtSold",
      "type": "event"
    },
    {
      "anonymous": false,
      "inputs": [
        {
          "indexed": false,
          "internalType": "uint256",
          "name": "_tokenId",
          "type": "uint256"
        },
        {
          "indexed": false,
          "internalType": "string",
          "name": "_title",
          "type": "string"
        },
        {
          "indexed": false,
          "internalType": "string",
          "name": "_category",
          "type": "string"
        },
        {
          "indexed": false,
          "internalType": "string",
          "name": "_authorName",
          "type": "string"
        },
        {
          "indexed": false,
          "internalType": "uint256",
          "name": "_price",
          "type": "uint256"
        },
        {
          "indexed": false,
          "internalType": "address",
          "name": "_author",
          "type": "address"
        },
        {
          "indexed": false,
          "internalType": "address",
          "name": "_current_owner",
          "type": "address"
        }
      ],
      "name": "LogArtTokenCreate",
      "type": "event"
    },
    {
      "anonymous": false,
      "inputs": [
        {
          "indexed": true,
          "internalType": "address",
          "name": "from",
          "type": "address"
        },
        {
          "indexed": true,
          "internalType": "address",
          "name": "to",
          "type": "address"
        },
        {
          "indexed": true,
          "internalType": "uint256",
          "name": "tokenId",
          "type": "uint256"
        }
      ],
      "name": "Transfer",
      "type": "event"
    },
    {
      "inputs": [
        {
          "internalType": "uint256",
          "name": "",
          "type": "uint256"
        }
      ],
      "name": "arts",
      "outputs": [
        {
          "internalType": "uint256",
          "name": "id",
          "type": "uint256"
        },
        {
          "internalType": "string",
          "name": "title",
          "type": "string"
        },
        {
          "internalType": "string",
          "name": "description",
          "type": "string"
        },
        {
          "internalType": "uint256",
          "name": "price",
          "type": "uint256"
        },
        {
          "internalType": "string",
          "name": "date",
          "type": "string"
        },
        {
          "internalType": "string",
          "name": "authorName",
          "type": "string"
        },
        {
          "internalType": "address payable",
          "name": "author",
          "type": "address"
        },
        {
          "internalType": "address payable",
          "name": "owner",
          "type": "address"
        },
        {
          "internalType": "uint256",
          "name": "status",
          "type": "uint256"
        },
        {
          "internalType": "string",
          "name": "image",
          "type": "string"
        }
      ],
      "stateMutability": "view",
      "type": "function",
      "constant": true
    },
    {
      "inputs": [],
      "name": "index",
      "outputs": [
        {
          "internalType": "uint256",
          "name": "",
          "type": "uint256"
        }
      ],
      "stateMutability": "view",
      "type": "function",
      "constant": true
    },
    {
      "inputs": [],
      "name": "name",
      "outputs": [
        {
          "internalType": "string",
          "name": "",
          "type": "string"
        }
      ],
      "stateMutability": "view",
      "type": "function",
      "constant": true
    },
    {
      "inputs": [],
      "name": "symbol",
      "outputs": [
        {
          "internalType": "string",
          "name": "",
          "type": "string"
        }
      ],
      "stateMutability": "view",
      "type": "function",
      "constant": true
    },
    {
      "inputs": [
        {
          "internalType": "string",
          "name": "_title",
          "type": "string"
        },
        {
          "internalType": "string",
          "name": "_description",
          "type": "string"
        },
        {
          "internalType": "string",
          "name": "_date",
          "type": "string"
        },
        {
          "internalType": "string",
          "name": "_authorName",
          "type": "string"
        },
        {
          "internalType": "uint256",
          "name": "_price",
          "type": "uint256"
        },
        {
          "internalType": "string",
          "name": "_image",
          "type": "string"
        }
      ],
      "name": "createTokenAndSellArt",
      "outputs": [],
      "stateMutability": "nonpayable",
      "type": "function"
    },
    {
      "inputs": [
        {
          "internalType": "uint256",
          "name": "_tokenId",
          "type": "uint256"
        }
      ],
      "name": "buyArt",
      "outputs": [],
      "stateMutability": "payable",
      "type": "function",
      "payable": true
    },
    {
      "inputs": [
        {
          "internalType": "uint256",
          "name": "_tokenId",
          "type": "uint256"
        },
        {
          "internalType": "uint256",
          "name": "_price",
          "type": "uint256"
        }
      ],
      "name": "resellArt",
      "outputs": [],
      "stateMutability": "payable",
      "type": "function",
      "payable": true
    },
    {
      "inputs": [
        {
          "internalType": "uint256",
          "name": "_tokenId",
          "type": "uint256"
        }
      ],
      "name": "findArt",
      "outputs": [
        {
          "internalType": "uint256",
          "name": "",
          "type": "uint256"
        },
        {
          "internalType": "string",
          "name": "",
          "type": "string"
        },
        {
          "internalType": "string",
          "name": "",
          "type": "string"
        },
        {
          "internalType": "uint256",
          "name": "",
          "type": "uint256"
        },
        {
          "internalType": "uint256",
          "name": "status",
          "type": "uint256"
        },
        {
          "internalType": "string",
          "name": "",
          "type": "string"
        },
        {
          "internalType": "string",
          "name": "",
          "type": "string"
        },
        {
          "internalType": "address",
          "name": "",
          "type": "address"
        },
        {
          "internalType": "address payable",
          "name": "",
          "type": "address"
        },
        {
          "internalType": "string",
          "name": "",
          "type": "string"
        }
      ],
      "stateMutability": "view",
      "type": "function",
      "constant": true
    },
    {
      "inputs": [],
      "name": "findAllArt",
      "outputs": [
        {
          "internalType": "uint256[]",
          "name": "",
          "type": "uint256[]"
        },
        {
          "internalType": "address[]",
          "name": "",
          "type": "address[]"
        },
        {
          "internalType": "address[]",
          "name": "",
          "type": "address[]"
        },
        {
          "internalType": "uint256[]",
          "name": "",
          "type": "uint256[]"
        }
      ],
      "stateMutability": "view",
      "type": "function",
      "constant": true
    },
    {
      "inputs": [],
      "name": "findAllPendingArt",
      "outputs": [
        {
          "internalType": "uint256[]",
          "name": "",
          "type": "uint256[]"
        },
        {
          "internalType": "address[]",
          "name": "",
          "type": "address[]"
        },
        {
          "internalType": "address[]",
          "name": "",
          "type": "address[]"
        },
        {
          "internalType": "uint256[]",
          "name": "",
          "type": "uint256[]"
        }
      ],
      "stateMutability": "view",
      "type": "function",
      "constant": true
    },
    {
      "inputs": [],
      "name": "findMyArts",
      "outputs": [
        {
          "internalType": "uint256[]",
          "name": "_myArts",
          "type": "uint256[]"
        }
      ],
      "stateMutability": "view",
      "type": "function",
      "constant": true
    },
    {
      "inputs": [
        {
          "internalType": "uint256",
          "name": "_tokenId",
          "type": "uint256"
        }
      ],
      "name": "getArtAllTxn",
      "outputs": [
        {
          "internalType": "uint256[]",
          "name": "_id",
          "type": "uint256[]"
        },
        {
          "internalType": "uint256[]",
          "name": "_price",
          "type": "uint256[]"
        },
        {
          "internalType": "address[]",
          "name": "seller",
          "type": "address[]"
        },
        {
          "internalType": "address[]",
          "name": "buyer",
          "type": "address[]"
        },
        {
          "internalType": "uint256[]",
          "name": "_txnDate",
          "type": "uint256[]"
        }
      ],
      "stateMutability": "view",
      "type": "function",
      "constant": true
    },
    {
      "inputs": [
        {
          "internalType": "address",
          "name": "_owner",
          "type": "address"
        }
      ],
      "name": "balanceOf",
      "outputs": [
        {
          "internalType": "uint256",
          "name": "",
          "type": "uint256"
        }
      ],
      "stateMutability": "view",
      "type": "function",
      "constant": true
    },
    {
      "inputs": [
        {
          "internalType": "uint256",
          "name": "_tokenId",
          "type": "uint256"
        }
      ],
      "name": "ownerOf",
      "outputs": [
        {
          "internalType": "address",
          "name": "_owner",
          "type": "address"
        }
      ],
      "stateMutability": "view",
      "type": "function",
      "constant": true
    },
    {
      "inputs": [
        {
          "internalType": "address",
          "name": "_to",
          "type": "address"
        },
        {
          "internalType": "uint256",
          "name": "_tokenId",
          "type": "uint256"
        }
      ],
      "name": "approve",
      "outputs": [],
      "stateMutability": "payable",
      "type": "function",
      "payable": true
    },
    {
      "inputs": [
        {
          "internalType": "address",
          "name": "_from",
          "type": "address"
        },
        {
          "internalType": "address",
          "name": "_to",
          "type": "address"
        },
        {
          "internalType": "uint256",
          "name": "_tokenId",
          "type": "uint256"
        }
      ],
      "name": "transferFrom",
      "outputs": [],
      "stateMutability": "payable",
      "type": "function",
      "payable": true
    },
    {
      "inputs": [
        {
          "internalType": "address",
          "name": "_to",
          "type": "address"
        },
        {
          "internalType": "uint256",
          "name": "_tokenId",
          "type": "uint256"
        }
      ],
      "name": "transfer",
      "outputs": [],
      "stateMutability": "nonpayable",
      "type": "function"
    },
    {
      "inputs": [
        {
          "internalType": "uint256",
          "name": "tokenId",
          "type": "uint256"
        }
      ],
      "name": "getApproved",
      "outputs": [
        {
          "internalType": "address",
          "name": "",
          "type": "address"
        }
      ],
      "stateMutability": "view",
      "type": "function",
      "constant": true
    },
    {
      "inputs": [
        {
          "internalType": "address",
          "name": "operator",
          "type": "address"
        },
        {
          "internalType": "bool",
          "name": "_approved",
          "type": "bool"
        }
      ],
      "name": "setApprovalForAll",
      "outputs": [],
      "stateMutability": "nonpayable",
      "type": "function"
    },
    {
      "inputs": [
        {
          "internalType": "address",
          "name": "owner",
          "type": "address"
        },
        {
          "internalType": "address",
          "name": "operator",
          "type": "address"
        }
      ],
      "name": "isApprovedForAll",
      "outputs": [
        {
          "internalType": "bool",
          "name": "",
          "type": "bool"
        }
      ],
      "stateMutability": "view",
      "type": "function",
      "constant": true
    },
    {
      "inputs": [
        {
          "internalType": "address",
          "name": "from",
          "type": "address"
        },
        {
          "internalType": "address",
          "name": "to",
          "type": "address"
        },
        {
          "internalType": "uint256",
          "name": "tokenId",
          "type": "uint256"
        }
      ],
      "name": "safeTransferFrom",
      "outputs": [],
      "stateMutability": "payable",
      "type": "function",
      "payable": true
    },
    {
      "inputs": [
        {
          "internalType": "address",
          "name": "from",
          "type": "address"
        },
        {
          "internalType": "address",
          "name": "to",
          "type": "address"
        },
        {
          "internalType": "uint256",
          "name": "tokenId",
          "type": "uint256"
        },
        {
          "internalType": "bytes",
          "name": "data",
          "type": "bytes"
        }
      ],
      "name": "safeTransferFrom",
      "outputs": [],
      "stateMutability": "payable",
      "type": "function",
      "payable": true
    },
    {
      "inputs": [
        {
          "internalType": "uint256",
          "name": "tokenId",
          "type": "uint256"
        },
        {
          "internalType": "address",
          "name": "account",
          "type": "address"
        }
      ],
      "name": "isOwnerOf",
      "outputs": [
        {
          "internalType": "bool",
          "name": "",
          "type": "bool"
        }
      ],
      "stateMutability": "view",
      "type": "function",
      "constant": true
    }
  ],
  "bytecode": "0x60806040523480156200001157600080fd5b506040516200531638038062005316833981810160405260408110156200003757600080fd5b81019080805160405193929190846401000000008211156200005857600080fd5b838201915060208201858111156200006f57600080fd5b82518660018202830111640100000000821117156200008d57600080fd5b8083526020830192505050908051906020019080838360005b83811015620000c3578082015181840152602081019050620000a6565b50505050905090810190601f168015620000f15780820380516001836020036101000a031916815260200191505b50604052602001805160405193929190846401000000008211156200011557600080fd5b838201915060208201858111156200012c57600080fd5b82518660018202830111640100000000821117156200014a57600080fd5b8083526020830192505050908051906020019080838360005b838110156200018057808201518184015260208101905062000163565b50505050905090810190601f168015620001ae5780820380516001836020036101000a031916815260200191505b506040525050508160009080519060200190620001cd929190620001ef565b508060019080519060200190620001e6929190620001ef565b5050506200029e565b828054600181600116156101000203166002900490600052602060002090601f016020900481019282601f106200023257805160ff191683800117855562000263565b8280016001018555821562000263579182015b828111156200026257825182559160200191906001019062000245565b5b50905062000272919062000276565b5090565b6200029b91905b80821115620002975760008160009055506001016200027d565b5090565b90565b61506880620002ae6000396000f3fe60806040526004361061015d576000357c01000000000000000000000000000000000000000000000000000000009004806395d89b41116100d3578063d2c088021161008c578063d2c0880214610d01578063e1925e1514610d6d578063e49a3d3b14610f1d578063e57a104a1461124b578063e985e9c51461152a578063fc7a900b146115b35761015d565b806395d89b41146107625780639ac016e2146107f2578063a22cb46514610865578063a9059cbb146108c2578063b88d4fde1461091d578063ce971a1014610a225761015d565b80632986c0e5116101255780632986c0e51461046d5780633e54fca11461049857806342842e0e146105dc5780636352211e1461064a57806364262dcc146106c557806370a08231146106fd5761015d565b8063063fc9661461016257806306fdde03146102a6578063081812fc14610336578063095ea7b3146103b157806323b872dd146103ff575b600080fd5b34801561016e57600080fd5b506101776115e1565b6040518080602001806020018060200180602001858103855289818151815260200191508051906020019060200280838360005b838110156101c65780820151818401526020810190506101ab565b50505050905001858103845288818151815260200191508051906020019060200280838360005b838110156102085780820151818401526020810190506101ed565b50505050905001858103835287818151815260200191508051906020019060200280838360005b8381101561024a57808201518184015260208101905061022f565b50505050905001858103825286818151815260200191508051906020019060200280838360005b8381101561028c578082015181840152602081019050610271565b505050509050019850505050505050505060405180910390f35b3480156102b257600080fd5b506102bb611cf7565b6040518080602001828103825283818151815260200191508051906020019080838360005b838110156102fb5780820151818401526020810190506102e0565b50505050905090810190601f1680156103285780820380516001836020036101000a031916815260200191505b509250505060405180910390f35b34801561034257600080fd5b5061036f6004803603602081101561035957600080fd5b8101908080359060200190929190505050611d99565b604051808273ffffffffffffffffffffffffffffffffffffffff1673ffffffffffffffffffffffffffffffffffffffff16815260200191505060405180910390f35b6103fd600480360360408110156103c757600080fd5b81019080803573ffffffffffffffffffffffffffffffffffffffff16906020019092919080359060200190929190505050611e51565b005b61046b6004803603606081101561041557600080fd5b81019080803573ffffffffffffffffffffffffffffffffffffffff169060200190929190803573ffffffffffffffffffffffffffffffffffffffff16906020019092919080359060200190929190505050611f7e565b005b34801561047957600080fd5b50610482612129565b6040518082815260200191505060405180910390f35b3480156104a457600080fd5b506104ad61212f565b6040518080602001806020018060200180602001858103855289818151815260200191508051906020019060200280838360005b838110156104fc5780820151818401526020810190506104e1565b50505050905001858103845288818151815260200191508051906020019060200280838360005b8381101561053e578082015181840152602081019050610523565b50505050905001858103835287818151815260200191508051906020019060200280838360005b83811015610580578082015181840152602081019050610565565b50505050905001858103825286818151815260200191508051906020019060200280838360005b838110156105c25780820151818401526020810190506105a7565b505050509050019850505050505050505060405180910390f35b610648600480360360608110156105f257600080fd5b81019080803573ffffffffffffffffffffffffffffffffffffffff169060200190929190803573ffffffffffffffffffffffffffffffffffffffff16906020019092919080359060200190929190505050612737565b005b34801561065657600080fd5b506106836004803603602081101561066d57600080fd5b810190808035906020019092919050505061273c565b604051808273ffffffffffffffffffffffffffffffffffffffff1673ffffffffffffffffffffffffffffffffffffffff16815260200191505060405180910390f35b6106fb600480360360408110156106db57600080fd5b810190808035906020019092919080359060200190929190505050612779565b005b34801561070957600080fd5b5061074c6004803603602081101561072057600080fd5b81019080803573ffffffffffffffffffffffffffffffffffffffff16906020019092919050505061293d565b6040518082815260200191505060405180910390f35b34801561076e57600080fd5b50610777612986565b6040518080602001828103825283818151815260200191508051906020019080838360005b838110156107b757808201518184015260208101905061079c565b50505050905090810190601f1680156107e45780820380516001836020036101000a031916815260200191505b509250505060405180910390f35b3480156107fe57600080fd5b5061084b6004803603604081101561081557600080fd5b8101908080359060200190929190803573ffffffffffffffffffffffffffffffffffffffff169060200190929190505050612a28565b604051808215151515815260200191505060405180910390f35b34801561087157600080fd5b506108c06004803603604081101561088857600080fd5b81019080803573ffffffffffffffffffffffffffffffffffffffff169060200190929190803515159060200190929190505050612b3c565b005b3480156108ce57600080fd5b5061091b600480360360408110156108e557600080fd5b81019080803573ffffffffffffffffffffffffffffffffffffffff16906020019092919080359060200190929190505050612cdf565b005b610a206004803603608081101561093357600080fd5b81019080803573ffffffffffffffffffffffffffffffffffffffff169060200190929190803573ffffffffffffffffffffffffffffffffffffffff169060200190929190803590602001909291908035906020019064010000000081111561099a57600080fd5b8201836020820111156109ac57600080fd5b803590602001918460018302840111640100000000831117156109ce57600080fd5b91908080601f016020809104026020016040519081016040528093929190818152602001838380828437600081840152601f19601f820116905080830192505050505050509192919290505050612e0d565b005b348015610a2e57600080fd5b50610a5b60048036036020811015610a4557600080fd5b8101908080359060200190929190505050612e13565b604051808b815260200180602001806020018a815260200189815260200180602001806020018873ffffffffffffffffffffffffffffffffffffffff1673ffffffffffffffffffffffffffffffffffffffff1681526020018773ffffffffffffffffffffffffffffffffffffffff1673ffffffffffffffffffffffffffffffffffffffff1681526020018060200186810386528f818151815260200191508051906020019080838360005b83811015610b21578082015181840152602081019050610b06565b50505050905090810190601f168015610b4e5780820380516001836020036101000a031916815260200191505b5086810385528e818151815260200191508051906020019080838360005b83811015610b87578082015181840152602081019050610b6c565b50505050905090810190601f168015610bb45780820380516001836020036101000a031916815260200191505b5086810384528b818151815260200191508051906020019080838360005b83811015610bed578082015181840152602081019050610bd2565b50505050905090810190601f168015610c1a5780820380516001836020036101000a031916815260200191505b5086810383528a818151815260200191508051906020019080838360005b83811015610c53578082015181840152602081019050610c38565b50505050905090810190601f168015610c805780820380516001836020036101000a031916815260200191505b50868103825287818151815260200191508051906020019080838360005b83811015610cb9578082015181840152602081019050610c9e565b50505050905090810190601f168015610ce65780820380516001836020036101000a031916815260200191505b509f5050505050505050505050505050505060405180910390f35b348015610d0d57600080fd5b50610d166132b0565b6040518080602001828103825283818151815260200191508051906020019060200280838360005b83811015610d59578082015181840152602081019050610d3e565b505050509050019250505060405180910390f35b348015610d7957600080fd5b50610da660048036036020811015610d9057600080fd5b8101908080359060200190929190505050613497565b60405180806020018060200180602001806020018060200186810386528b818151815260200191508051906020019060200280838360005b83811015610df9578082015181840152602081019050610dde565b5050505090500186810385528a818151815260200191508051906020019060200280838360005b83811015610e3b578082015181840152602081019050610e20565b50505050905001868103845289818151815260200191508051906020019060200280838360005b83811015610e7d578082015181840152602081019050610e62565b50505050905001868103835288818151815260200191508051906020019060200280838360005b83811015610ebf578082015181840152602081019050610ea4565b50505050905001868103825287818151815260200191508051906020019060200280838360005b83811015610f01578082015181840152602081019050610ee6565b505050509050019a505050505050505050505060405180910390f35b348015610f2957600080fd5b50611249600480360360c0811015610f4057600080fd5b8101908080359060200190640100000000811115610f5d57600080fd5b820183602082011115610f6f57600080fd5b80359060200191846001830284011164010000000083111715610f9157600080fd5b91908080601f016020809104026020016040519081016040528093929190818152602001838380828437600081840152601f19601f82011690508083019250505050505050919291929080359060200190640100000000811115610ff457600080fd5b82018360208201111561100657600080fd5b8035906020019184600183028401116401000000008311171561102857600080fd5b91908080601f016020809104026020016040519081016040528093929190818152602001838380828437600081840152601f19601f8201169050808301925050505050505091929192908035906020019064010000000081111561108b57600080fd5b82018360208201111561109d57600080fd5b803590602001918460018302840111640100000000831117156110bf57600080fd5b91908080601f016020809104026020016040519081016040528093929190818152602001838380828437600081840152601f19601f8201169050808301925050505050505091929192908035906020019064010000000081111561112257600080fd5b82018360208201111561113457600080fd5b8035906020019184600183028401116401000000008311171561115657600080fd5b91908080601f016020809104026020016040519081016040528093929190818152602001838380828437600081840152601f19601f82011690508083019250505050505050919291929080359060200190929190803590602001906401000000008111156111c357600080fd5b8201836020820111156111d557600080fd5b803590602001918460018302840111640100000000831117156111f757600080fd5b91908080601f016020809104026020016040519081016040528093929190818152602001838380828437600081840152601f19601f82011690508083019250505050505050919291929050505061382f565b005b34801561125757600080fd5b506112846004803603602081101561126e57600080fd5b8101908080359060200190929190505050613ea0565b604051808b815260200180602001806020018a815260200180602001806020018973ffffffffffffffffffffffffffffffffffffffff1673ffffffffffffffffffffffffffffffffffffffff1681526020018873ffffffffffffffffffffffffffffffffffffffff1673ffffffffffffffffffffffffffffffffffffffff1681526020018781526020018060200186810386528f818151815260200191508051906020019080838360005b8381101561134a57808201518184015260208101905061132f565b50505050905090810190601f1680156113775780820380516001836020036101000a031916815260200191505b5086810385528e818151815260200191508051906020019080838360005b838110156113b0578082015181840152602081019050611395565b50505050905090810190601f1680156113dd5780820380516001836020036101000a031916815260200191505b5086810384528c818151815260200191508051906020019080838360005b838110156114165780820151818401526020810190506113fb565b50505050905090810190601f1680156114435780820380516001836020036101000a031916815260200191505b5086810383528b818151815260200191508051906020019080838360005b8381101561147c578082015181840152602081019050611461565b50505050905090810190601f1680156114a95780820380516001836020036101000a031916815260200191505b50868103825287818151815260200191508051906020019080838360005b838110156114e25780820151818401526020810190506114c7565b50505050905090810190601f16801561150f5780820380516001836020036101000a031916815260200191505b509f5050505050505050505050505050505060405180910390f35b34801561153657600080fd5b506115996004803603604081101561154d57600080fd5b81019080803573ffffffffffffffffffffffffffffffffffffffff169060200190929190803573ffffffffffffffffffffffffffffffffffffffff169060200190929190505050614239565b604051808215151515815260200191505060405180910390f35b6115df600480360360208110156115c957600080fd5b81019080803590602001909291905050506142cd565b005b606080606080600060035414156116cf5760006040519080825280602002602001820160405280156116225781602001602082028038833980820191505090505b5060006040519080825280602002602001820160405280156116535781602001602082028038833980820191505090505b5060006040519080825280602002602001820160405280156116845781602001602082028038833980820191505090505b5060006040519080825280602002602001820160405280156116b55781602001602082028038833980820191505090505b508393508292508191508090509350935093509350611cf1565b60006002805490509050606060035460405190808252806020026020018201604052801561170c5781602001602082028038833980820191505090505b50905060606003546040519080825280602002602001820160405280156117425781602001602082028038833980820191505090505b50905060606003546040519080825280602002602001820160405280156117785781602001602082028038833980820191505090505b50905060606003546040519080825280602002602001820160405280156117ae5781602001602082028038833980820191505090505b509050600080905060008090505b86811015611cdd576117cc614eac565b600282815481106117d957fe5b90600052602060002090600a02016040518061014001604052908160008201548152602001600182018054600181600116156101000203166002900480601f0160208091040260200160405190810160405280929190818152602001828054600181600116156101000203166002900480156118965780601f1061186b57610100808354040283529160200191611896565b820191906000526020600020905b81548152906001019060200180831161187957829003601f168201915b50505050508152602001600282018054600181600116156101000203166002900480601f0160208091040260200160405190810160405280929190818152602001828054600181600116156101000203166002900480156119385780601f1061190d57610100808354040283529160200191611938565b820191906000526020600020905b81548152906001019060200180831161191b57829003601f168201915b5050505050815260200160038201548152602001600482018054600181600116156101000203166002900480601f0160208091040260200160405190810160405280929190818152602001828054600181600116156101000203166002900480156119e45780601f106119b9576101008083540402835291602001916119e4565b820191906000526020600020905b8154815290600101906020018083116119c757829003601f168201915b50505050508152602001600582018054600181600116156101000203166002900480601f016020809104026020016040519081016040528092919081815260200182805460018160011615610100020316600290048015611a865780601f10611a5b57610100808354040283529160200191611a86565b820191906000526020600020905b815481529060010190602001808311611a6957829003601f168201915b505050505081526020016006820160009054906101000a900473ffffffffffffffffffffffffffffffffffffffff1673ffffffffffffffffffffffffffffffffffffffff1673ffffffffffffffffffffffffffffffffffffffff1681526020016007820160009054906101000a900473ffffffffffffffffffffffffffffffffffffffff1673ffffffffffffffffffffffffffffffffffffffff1673ffffffffffffffffffffffffffffffffffffffff16815260200160088201548152602001600982018054600181600116156101000203166002900480601f016020809104026020016040519081016040528092919081815260200182805460018160011615610100020316600290048015611bde5780601f10611bb357610100808354040283529160200191611bde565b820191906000526020600020905b815481529060010190602001808311611bc157829003601f168201915b505050505081525050905060018161010001511415611cd1578060000151878481518110611c0857fe5b6020026020010181815250508060c00151868481518110611c2557fe5b602002602001019073ffffffffffffffffffffffffffffffffffffffff16908173ffffffffffffffffffffffffffffffffffffffff16815250508060e00151858481518110611c7057fe5b602002602001019073ffffffffffffffffffffffffffffffffffffffff16908173ffffffffffffffffffffffffffffffffffffffff1681525050806101000151848481518110611cbc57fe5b60200260200101818152505082806001019350505b508060010190506117bc565b508484848499509950995099505050505050505b90919293565b606060008054600181600116156101000203166002900480601f016020809104026020016040519081016040528092919081815260200182805460018160011615610100020316600290048015611d8f5780601f10611d6457610100808354040283529160200191611d8f565b820191906000526020600020905b815481529060010190602001808311611d7257829003601f168201915b5050505050905090565b6000611da482614a82565b611e16576040517f08c379a000000000000000000000000000000000000000000000000000000000815260040180806020018281038252600e8152602001807f446f6573206e6f7420657869737400000000000000000000000000000000000081525060200191505060405180910390fd5b6006600083815260200190815260200160002060009054906101000a900473ffffffffffffffffffffffffffffffffffffffff169050919050565b611e5b8133612a28565b611ecd576040517f08c379a000000000000000000000000000000000000000000000000000000000815260040180806020018281038252600b8152602001807f4e6f206f6e6520656c736500000000000000000000000000000000000000000081525060200191505060405180910390fd5b816006600083815260200190815260200160002060006101000a81548173ffffffffffffffffffffffffffffffffffffffff021916908373ffffffffffffffffffffffffffffffffffffffff160217905550808273ffffffffffffffffffffffffffffffffffffffff163373ffffffffffffffffffffffffffffffffffffffff167f8c5be1e5ebec7d5bd14f71427d1e84f3dd0314c0f7b2291e5b200ac8c7c3b92560405160405180910390a45050565b600073ffffffffffffffffffffffffffffffffffffffff168273ffffffffffffffffffffffffffffffffffffffff161415612021576040517f08c379a00000000000000000000000000000000000000000000000000000000081526004018080602001828103825260168152602001807f43616e6e6f74206265207a65726f20616464726573730000000000000000000081525060200191505060405180910390fd5b61202b8184612a28565b61209d576040517f08c379a000000000000000000000000000000000000000000000000000000000815260040180806020018281038252600d8152602001807f496e76616c6964206f776e65720000000000000000000000000000000000000081525060200191505060405180910390fd5b6120a78282614af4565b612119576040517f08c379a000000000000000000000000000000000000000000000000000000000815260040180806020018281038252600e8152602001807f57726f6e6720617070726f76616c00000000000000000000000000000000000081525060200191505060405180910390fd5b612124838383614b60565b505050565b60095481565b606080606080600060028054905090506060816040519080825280602002602001820160405280156121705781602001602082028038833980820191505090505b5090506060826040519080825280602002602001820160405280156121a45781602001602082028038833980820191505090505b5090506060836040519080825280602002602001820160405280156121d85781602001602082028038833980820191505090505b50905060608460405190808252806020026020018201604052801561220c5781602001602082028038833980820191505090505b50905060008090505b8581101561271f57612225614eac565b6002828154811061223257fe5b90600052602060002090600a02016040518061014001604052908160008201548152602001600182018054600181600116156101000203166002900480601f0160208091040260200160405190810160405280929190818152602001828054600181600116156101000203166002900480156122ef5780601f106122c4576101008083540402835291602001916122ef565b820191906000526020600020905b8154815290600101906020018083116122d257829003601f168201915b50505050508152602001600282018054600181600116156101000203166002900480601f0160208091040260200160405190810160405280929190818152602001828054600181600116156101000203166002900480156123915780601f1061236657610100808354040283529160200191612391565b820191906000526020600020905b81548152906001019060200180831161237457829003601f168201915b5050505050815260200160038201548152602001600482018054600181600116156101000203166002900480601f01602080910402602001604051908101604052809291908181526020018280546001816001161561010002031660029004801561243d5780601f106124125761010080835404028352916020019161243d565b820191906000526020600020905b81548152906001019060200180831161242057829003601f168201915b50505050508152602001600582018054600181600116156101000203166002900480601f0160208091040260200160405190810160405280929190818152602001828054600181600116156101000203166002900480156124df5780601f106124b4576101008083540402835291602001916124df565b820191906000526020600020905b8154815290600101906020018083116124c257829003601f168201915b505050505081526020016006820160009054906101000a900473ffffffffffffffffffffffffffffffffffffffff1673ffffffffffffffffffffffffffffffffffffffff1673ffffffffffffffffffffffffffffffffffffffff1681526020016007820160009054906101000a900473ffffffffffffffffffffffffffffffffffffffff1673ffffffffffffffffffffffffffffffffffffffff1673ffffffffffffffffffffffffffffffffffffffff16815260200160088201548152602001600982018054600181600116156101000203166002900480601f0160208091040260200160405190810160405280929190818152602001828054600181600116156101000203166002900480156126375780601f1061260c57610100808354040283529160200191612637565b820191906000526020600020905b81548152906001019060200180831161261a57829003601f168201915b5050505050815250509050806000015186838151811061265357fe5b6020026020010181815250508060c0015185838151811061267057fe5b602002602001019073ffffffffffffffffffffffffffffffffffffffff16908173ffffffffffffffffffffffffffffffffffffffff16815250508060e001518483815181106126bb57fe5b602002602001019073ffffffffffffffffffffffffffffffffffffffff16908173ffffffffffffffffffffffffffffffffffffffff168152505080610100015183838151811061270757fe5b60200260200101818152505050806001019050612215565b50838383839850985098509850505050505090919293565b505050565b60006004600083815260200190815260200160002060009054906101000a900473ffffffffffffffffffffffffffffffffffffffff169050919050565b600073ffffffffffffffffffffffffffffffffffffffff163373ffffffffffffffffffffffffffffffffffffffff16141561281c576040517f08c379a00000000000000000000000000000000000000000000000000000000081526004018080602001828103825260168152602001807f43616e6e6f74206265207a65726f20616464726573730000000000000000000081525060200191505060405180910390fd5b6128268233612a28565b612898576040517f08c379a000000000000000000000000000000000000000000000000000000000815260040180806020018281038252600b8152602001807f4e6f206f6e6520656c736500000000000000000000000000000000000000000081525060200191505060405180910390fd5b6001600283815481106128a757fe5b90600052602060002090600a02016008018190555080600283815481106128ca57fe5b90600052602060002090600a0201600301819055506003600081548092919060010191905055507f8916ae292317d6f324a5ed02fea84bf6881d4065b6d575a8980442469b882b7a8260018360405180848152602001838152602001828152602001935050505060405180910390a15050565b6000600560008373ffffffffffffffffffffffffffffffffffffffff1673ffffffffffffffffffffffffffffffffffffffff168152602001908152602001600020549050919050565b606060018054600181600116156101000203166002900480601f016020809104026020016040519081016040528092919081815260200182805460018160011615610100020316600290048015612a1e5780601f106129f357610100808354040283529160200191612a1e565b820191906000526020600020905b815481529060010190602001808311612a0157829003601f168201915b5050505050905090565b6000806004600085815260200190815260200160002060009054906101000a900473ffffffffffffffffffffffffffffffffffffffff169050600073ffffffffffffffffffffffffffffffffffffffff168173ffffffffffffffffffffffffffffffffffffffff161415612b04576040517f08c379a00000000000000000000000000000000000000000000000000000000081526004018080602001828103825260168152602001807f43616e6e6f74206265207a65726f20616464726573730000000000000000000081525060200191505060405180910390fd5b8273ffffffffffffffffffffffffffffffffffffffff168173ffffffffffffffffffffffffffffffffffffffff161491505092915050565b3373ffffffffffffffffffffffffffffffffffffffff168273ffffffffffffffffffffffffffffffffffffffff161415612bde576040517f08c379a00000000000000000000000000000000000000000000000000000000081526004018080602001828103825260208152602001807f4f70657261746f722073686f756c642062652063757272656e74206f776e657281525060200191505060405180910390fd5b80600760003373ffffffffffffffffffffffffffffffffffffffff1673ffffffffffffffffffffffffffffffffffffffff16815260200190815260200160002060008473ffffffffffffffffffffffffffffffffffffffff1673ffffffffffffffffffffffffffffffffffffffff16815260200190815260200160002060006101000a81548160ff0219169083151502179055508173ffffffffffffffffffffffffffffffffffffffff163373ffffffffffffffffffffffffffffffffffffffff167f17307eab39ab6107e8899845ad3d59bd9653f200f220920489ca2b5937696c3183604051808215151515815260200191505060405180910390a35050565b600073ffffffffffffffffffffffffffffffffffffffff168273ffffffffffffffffffffffffffffffffffffffff161415612d82576040517f08c379a00000000000000000000000000000000000000000000000000000000081526004018080602001828103825260168152602001807f43616e6e6f74206265207a65726f20616464726573730000000000000000000081525060200191505060405180910390fd5b612d8c8133612a28565b612dfe576040517f08c379a000000000000000000000000000000000000000000000000000000000815260040180806020018281038252600b8152602001807f4e6f206f6e6520656c736500000000000000000000000000000000000000000081525060200191505060405180910390fd5b612e09338383614b60565b5050565b50505050565b60006060806000806060806000806060612e2b614eac565b60028c81548110612e3857fe5b90600052602060002090600a02016040518061014001604052908160008201548152602001600182018054600181600116156101000203166002900480601f016020809104026020016040519081016040528092919081815260200182805460018160011615610100020316600290048015612ef55780601f10612eca57610100808354040283529160200191612ef5565b820191906000526020600020905b815481529060010190602001808311612ed857829003601f168201915b50505050508152602001600282018054600181600116156101000203166002900480601f016020809104026020016040519081016040528092919081815260200182805460018160011615610100020316600290048015612f975780601f10612f6c57610100808354040283529160200191612f97565b820191906000526020600020905b815481529060010190602001808311612f7a57829003601f168201915b5050505050815260200160038201548152602001600482018054600181600116156101000203166002900480601f0160208091040260200160405190810160405280929190818152602001828054600181600116156101000203166002900480156130435780601f1061301857610100808354040283529160200191613043565b820191906000526020600020905b81548152906001019060200180831161302657829003601f168201915b50505050508152602001600582018054600181600116156101000203166002900480601f0160208091040260200160405190810160405280929190818152602001828054600181600116156101000203166002900480156130e55780601f106130ba576101008083540402835291602001916130e5565b820191906000526020600020905b8154815290600101906020018083116130c857829003601f168201915b505050505081526020016006820160009054906101000a900473ffffffffffffffffffffffffffffffffffffffff1673ffffffffffffffffffffffffffffffffffffffff1673ffffffffffffffffffffffffffffffffffffffff1681526020016007820160009054906101000a900473ffffffffffffffffffffffffffffffffffffffff1673ffffffffffffffffffffffffffffffffffffffff1673ffffffffffffffffffffffffffffffffffffffff16815260200160088201548152602001600982018054600181600116156101000203166002900480601f01602080910402602001604051908101604052809291908181526020018280546001816001161561010002031660029004801561323d5780601f106132125761010080835404028352916020019161323d565b820191906000526020600020905b81548152906001019060200180831161322057829003601f168201915b5050505050815250509050806000015181602001518260400151836060015184610100015185608001518660a001518760c001518860e001518961012001518898508797508494508393508292508090509a509a509a509a509a509a509a509a509a509a50509193959799509193959799565b6060600073ffffffffffffffffffffffffffffffffffffffff163373ffffffffffffffffffffffffffffffffffffffff161415613355576040517f08c379a00000000000000000000000000000000000000000000000000000000081526004018080602001828103825260168152602001807f43616e6e6f74206265207a65726f20616464726573730000000000000000000081525060200191505060405180910390fd5b60006133603361293d565b905060008114156133a457600060405190808252806020026020018201604052801561339b5781602001602082028038833980820191505090505b50915050613494565b6060816040519080825280602002602001820160405280156133d55781602001602082028038833980820191505090505b50905060008090506000600280549050905060008090505b8181101561348b573373ffffffffffffffffffffffffffffffffffffffff166004600083815260200190815260200160002060009054906101000a900473ffffffffffffffffffffffffffffffffffffffff1673ffffffffffffffffffffffffffffffffffffffff16141561347e578084848151811061346957fe5b60200260200101818152505082806001019350505b80806001019150506133ed565b50829450505050505b90565b60608060608060608060086000888152602001908152602001600020805480602002602001604051908101604052809291908181526020016000905b828210156135d957838290600052602060002090600602016040518060c001604052908160008201548152602001600182015481526020016002820160009054906101000a900473ffffffffffffffffffffffffffffffffffffffff1673ffffffffffffffffffffffffffffffffffffffff1673ffffffffffffffffffffffffffffffffffffffff1681526020016003820160009054906101000a900473ffffffffffffffffffffffffffffffffffffffff1673ffffffffffffffffffffffffffffffffffffffff1673ffffffffffffffffffffffffffffffffffffffff16815260200160048201548152602001600582015481525050815260200190600101906134d3565b5050505090506000815190506060816040519080825280602002602001820160405280156136165781602001602082028038833980820191505090505b50905060608260405190808252806020026020018201604052801561364a5781602001602082028038833980820191505090505b50905060608360405190808252806020026020018201604052801561367e5781602001602082028038833980820191505090505b5090506060846040519080825280602002602001820160405280156136b25781602001602082028038833980820191505090505b5090506060856040519080825280602002602001820160405280156136e65781602001602082028038833980820191505090505b50905060008090505b875181101561380f57613700614f2b565b88828151811061370c57fe5b60200260200101519050806000015187838151811061372757fe5b602002602001018181525050806020015186838151811061374457fe5b602002602001018181525050806040015185838151811061376157fe5b602002602001019073ffffffffffffffffffffffffffffffffffffffff16908173ffffffffffffffffffffffffffffffffffffffff168152505080606001518483815181106137ac57fe5b602002602001019073ffffffffffffffffffffffffffffffffffffffff16908173ffffffffffffffffffffffffffffffffffffffff168152505080608001518383815181106137f757fe5b602002602001018181525050508060010190506136ef565b5084848484849b509b509b509b509b505050505050505091939590929450565b60008651116138a6576040517f08c379a00000000000000000000000000000000000000000000000000000000081526004018080602001828103825260198152602001807f546865207469746c652063616e6e6f7420626520656d7074790000000000000081525060200191505060405180910390fd5b600084511161391d576040517f08c379a00000000000000000000000000000000000000000000000000000000081526004018080602001828103825260188152602001807f54686520446174652063616e6e6f7420626520656d707479000000000000000081525060200191505060405180910390fd5b6000855111613994576040517f08c379a000000000000000000000000000000000000000000000000000000000815260040180806020018281038252601f8152602001807f546865206465736372697074696f6e2063616e6e6f7420626520656d7074790081525060200191505060405180910390fd5b60008211613a0a576040517f08c379a00000000000000000000000000000000000000000000000000000000081526004018080602001828103825260198152602001807f5468652070726963652063616e6e6f7420626520656d7074790000000000000081525060200191505060405180910390fd5b6000815111613a81576040517f08c379a00000000000000000000000000000000000000000000000000000000081526004018080602001828103825260198152602001807f54686520696d6167652063616e6e6f7420626520656d7074790000000000000081525060200191505060405180910390fd5b613a89614eac565b60405180610140016040528060095481526020018881526020018781526020018481526020018681526020018581526020013373ffffffffffffffffffffffffffffffffffffffff1681526020013373ffffffffffffffffffffffffffffffffffffffff1681526020016001815260200183815250905060028190806001815401808255809150506001900390600052602060002090600a0201600090919091909150600082015181600001556020820151816001019080519060200190613b52929190614f8d565b506040820151816002019080519060200190613b6f929190614f8d565b50606082015181600301556080820151816004019080519060200190613b96929190614f8d565b5060a0820151816005019080519060200190613bb3929190614f8d565b5060c08201518160060160006101000a81548173ffffffffffffffffffffffffffffffffffffffff021916908373ffffffffffffffffffffffffffffffffffffffff16021790555060e08201518160070160006101000a81548173ffffffffffffffffffffffffffffffffffffffff021916908373ffffffffffffffffffffffffffffffffffffffff1602179055506101008201518160080155610120820151816009019080519060200190613c6a929190614f8d565b50505060006001600280549050039050613c843382614cb1565b7ff376cc32e072d5cce6d2829c66b30d30fa0bd8fccda5e8fc27dab2543050571581898888883333604051808881526020018060200180602001806020018781526020018673ffffffffffffffffffffffffffffffffffffffff1673ffffffffffffffffffffffffffffffffffffffff1681526020018573ffffffffffffffffffffffffffffffffffffffff1673ffffffffffffffffffffffffffffffffffffffff16815260200184810384528a818151815260200191508051906020019080838360005b83811015613d64578082015181840152602081019050613d49565b50505050905090810190601f168015613d915780820380516001836020036101000a031916815260200191505b50848103835289818151815260200191508051906020019080838360005b83811015613dca578082015181840152602081019050613daf565b50505050905090810190601f168015613df75780820380516001836020036101000a031916815260200191505b50848103825288818151815260200191508051906020019080838360005b83811015613e30578082015181840152602081019050613e15565b50505050905090810190601f168015613e5d5780820380516001836020036101000a031916815260200191505b509a505050505050505050505060405180910390a16009600081548092919060010191905055506003600081548092919060010191905055505050505050505050565b60028181548110613ead57fe5b90600052602060002090600a0201600091509050806000015490806001018054600181600116156101000203166002900480601f016020809104026020016040519081016040528092919081815260200182805460018160011615610100020316600290048015613f5f5780601f10613f3457610100808354040283529160200191613f5f565b820191906000526020600020905b815481529060010190602001808311613f4257829003601f168201915b505050505090806002018054600181600116156101000203166002900480601f016020809104026020016040519081016040528092919081815260200182805460018160011615610100020316600290048015613ffd5780601f10613fd257610100808354040283529160200191613ffd565b820191906000526020600020905b815481529060010190602001808311613fe057829003601f168201915b505050505090806003015490806004018054600181600116156101000203166002900480601f0160208091040260200160405190810160405280929190818152602001828054600181600116156101000203166002900480156140a15780601f10614076576101008083540402835291602001916140a1565b820191906000526020600020905b81548152906001019060200180831161408457829003601f168201915b505050505090806005018054600181600116156101000203166002900480601f01602080910402602001604051908101604052809291908181526020018280546001816001161561010002031660029004801561413f5780601f106141145761010080835404028352916020019161413f565b820191906000526020600020905b81548152906001019060200180831161412257829003601f168201915b5050505050908060060160009054906101000a900473ffffffffffffffffffffffffffffffffffffffff16908060070160009054906101000a900473ffffffffffffffffffffffffffffffffffffffff1690806008015490806009018054600181600116156101000203166002900480601f01602080910402602001604051908101604052809291908181526020018280546001816001161561010002031660029004801561422f5780601f106142045761010080835404028352916020019161422f565b820191906000526020600020905b81548152906001019060200180831161421257829003601f168201915b505050505090508a565b6000600760008473ffffffffffffffffffffffffffffffffffffffff1673ffffffffffffffffffffffffffffffffffffffff16815260200190815260200160002060008373ffffffffffffffffffffffffffffffffffffffff1673ffffffffffffffffffffffffffffffffffffffff16815260200190815260200160002060009054906101000a900460ff16905092915050565b6000606060008060606000806142e288612e13565b5098509850985050975097505096509650600073ffffffffffffffffffffffffffffffffffffffff168173ffffffffffffffffffffffffffffffffffffffff161415614396576040517f08c379a00000000000000000000000000000000000000000000000000000000081526004018080602001828103825260168152602001807f43616e6e6f74206265207a65726f20616464726573730000000000000000000081525060200191505060405180910390fd5b600073ffffffffffffffffffffffffffffffffffffffff163373ffffffffffffffffffffffffffffffffffffffff161415614439576040517f08c379a00000000000000000000000000000000000000000000000000000000081526004018080602001828103825260168152602001807f43616e6e6f74206265207a65726f20616464726573730000000000000000000081525060200191505060405180910390fd5b8073ffffffffffffffffffffffffffffffffffffffff163373ffffffffffffffffffffffffffffffffffffffff1614156144db576040517f08c379a00000000000000000000000000000000000000000000000000000000081526004018080602001828103825260178152602001807f43616e6e6f742062652063757272656e74206f776e657200000000000000000081525060200191505060405180910390fd5b84341015614551576040517f08c379a000000000000000000000000000000000000000000000000000000000815260040180806020018281038252600e8152602001807f496e76616c696420416d6f756e7400000000000000000000000000000000000081525060200191505060405180910390fd5b600073ffffffffffffffffffffffffffffffffffffffff166002898154811061457657fe5b90600052602060002090600a020160070160009054906101000a900473ffffffffffffffffffffffffffffffffffffffff1673ffffffffffffffffffffffffffffffffffffffff161415614632576040517f08c379a00000000000000000000000000000000000000000000000000000000081526004018080602001828103825260168152602001807f43616e6e6f74206265207a65726f20616464726573730000000000000000000081525060200191505060405180910390fd5b61463d81338a614b60565b8434111561468f573373ffffffffffffffffffffffffffffffffffffffff166108fc8634039081150290604051600060405180830381858888f1935050505015801561468d573d6000803e3d6000fd5b505b8073ffffffffffffffffffffffffffffffffffffffff166108fc869081150290604051600060405180830381858888f193505050501580156146d5573d6000803e3d6000fd5b5033600289815481106146e457fe5b90600052602060002090600a020160070160006101000a81548173ffffffffffffffffffffffffffffffffffffffff021916908373ffffffffffffffffffffffffffffffffffffffff16021790555060006002898154811061474257fe5b90600052602060002090600a02016008018190555061475f614f2b565b6040518060c001604052808981526020018781526020018373ffffffffffffffffffffffffffffffffffffffff1681526020013373ffffffffffffffffffffffffffffffffffffffff16815260200142815260200186815250905060086000898152602001908152602001600020819080600181540180825580915050600190039060005260206000209060060201600090919091909150600082015181600001556020820151816001015560408201518160020160006101000a81548173ffffffffffffffffffffffffffffffffffffffff021916908373ffffffffffffffffffffffffffffffffffffffff16021790555060608201518160030160006101000a81548173ffffffffffffffffffffffffffffffffffffffff021916908373ffffffffffffffffffffffffffffffffffffffff1602179055506080820151816004015560a082015181600501555050600360008154809291906001900391905055507f33157a2d6e087f53ff6fc0edba4550aa6df53452ece435476cd3ab334ad50c34898886898787336040518088815260200180602001806020018781526020018673ffffffffffffffffffffffffffffffffffffffff1673ffffffffffffffffffffffffffffffffffffffff1681526020018573ffffffffffffffffffffffffffffffffffffffff1673ffffffffffffffffffffffffffffffffffffffff1681526020018473ffffffffffffffffffffffffffffffffffffffff1673ffffffffffffffffffffffffffffffffffffffff168152602001838103835289818151815260200191508051906020019080838360005b838110156149d05780820151818401526020810190506149b5565b50505050905090810190601f1680156149fd5780820380516001836020036101000a031916815260200191505b50838103825288818151815260200191508051906020019080838360005b83811015614a36578082015181840152602081019050614a1b565b50505050905090810190601f168015614a635780820380516001836020036101000a031916815260200191505b50995050505050505050505060405180910390a1505050505050505050565b6000806004600084815260200190815260200160002060009054906101000a900473ffffffffffffffffffffffffffffffffffffffff169050600073ffffffffffffffffffffffffffffffffffffffff168173ffffffffffffffffffffffffffffffffffffffff161415915050919050565b60008273ffffffffffffffffffffffffffffffffffffffff166006600084815260200190815260200160002060009054906101000a900473ffffffffffffffffffffffffffffffffffffffff1673ffffffffffffffffffffffffffffffffffffffff1614905092915050565b600560008373ffffffffffffffffffffffffffffffffffffffff1673ffffffffffffffffffffffffffffffffffffffff16815260200190815260200160002060008154809291906001019190505550600560008473ffffffffffffffffffffffffffffffffffffffff1673ffffffffffffffffffffffffffffffffffffffff1681526020019081526020016000206000815480929190600190039190505550816004600083815260200190815260200160002060006101000a81548173ffffffffffffffffffffffffffffffffffffffff021916908373ffffffffffffffffffffffffffffffffffffffff160217905550808273ffffffffffffffffffffffffffffffffffffffff168473ffffffffffffffffffffffffffffffffffffffff167fddf252ad1be2c89b69c2b068fc378daa952ba7f163c4a11628f55a4df523b3ef60405160405180910390a4505050565b600073ffffffffffffffffffffffffffffffffffffffff168273ffffffffffffffffffffffffffffffffffffffff161415614d54576040517f08c379a00000000000000000000000000000000000000000000000000000000081526004018080602001828103825260168152602001807f43616e6e6f74206265207a65726f20616464726573730000000000000000000081525060200191505060405180910390fd5b614d5d81614a82565b15614dab576040517f08c379a0000000000000000000000000000000000000000000000000000000008152600401808060200182810382526000815260200160200191505060405180910390fd5b816004600083815260200190815260200160002060006101000a81548173ffffffffffffffffffffffffffffffffffffffff021916908373ffffffffffffffffffffffffffffffffffffffff160217905550600560008373ffffffffffffffffffffffffffffffffffffffff1673ffffffffffffffffffffffffffffffffffffffff16815260200190815260200160002060008154809291906001019190505550808273ffffffffffffffffffffffffffffffffffffffff16600073ffffffffffffffffffffffffffffffffffffffff167fddf252ad1be2c89b69c2b068fc378daa952ba7f163c4a11628f55a4df523b3ef60405160405180910390a45050565b604051806101400160405280600081526020016060815260200160608152602001600081526020016060815260200160608152602001600073ffffffffffffffffffffffffffffffffffffffff168152602001600073ffffffffffffffffffffffffffffffffffffffff16815260200160008152602001606081525090565b6040518060c001604052806000815260200160008152602001600073ffffffffffffffffffffffffffffffffffffffff168152602001600073ffffffffffffffffffffffffffffffffffffffff16815260200160008152602001600081525090565b828054600181600116156101000203166002900490600052602060002090601f016020900481019282601f10614fce57805160ff1916838001178555614ffc565b82800160010185558215614ffc579182015b82811115614ffb578251825591602001919060010190614fe0565b5b509050615009919061500d565b5090565b61502f91905b8082111561502b576000816000905550600101615013565b5090565b9056fea26469706673582212202be0ebd74cf103e2dd654e1b3a5a9724ed401e9c805880e5fb474d5b5a37748964736f6c63430006000033",
  "source": "// SPDX-License-Identifier: MIT\n\npragma solidity ^0.6.0;\n\n\ninterface IERC721 {\n    event Transfer(\n        address indexed from,\n        address indexed to,\n        uint256 indexed tokenId\n    );\n    event Approval(\n        address indexed owner,\n        address indexed approved,\n        uint256 indexed tokenId\n    );\n    event ApprovalForAll(\n        address indexed owner,\n        address indexed operator,\n        bool approved\n    );\n\n    function balanceOf(address owner) external view returns (uint256);\n\n    function ownerOf(uint256 tokenId) external view returns (address);\n\n    function approve(address to, uint256 tokenId) external payable;\n\n    function getApproved(uint256 tokenId) external view returns (address);\n\n    function setApprovalForAll(address operator, bool _approved) external;\n\n    function isApprovedForAll(address owner, address operator)\n        external\n        view\n        returns (bool);\n\n    function transferFrom(\n        address from,\n        address to,\n        uint256 tokenId\n    ) external payable;\n\n    function safeTransferFrom(\n        address from,\n        address to,\n        uint256 tokenId\n    ) external payable;\n\n    function safeTransferFrom(\n        address from,\n        address to,\n        uint256 tokenId,\n        bytes calldata\n    ) external payable;\n}\n\n\ncontract DigitizedArt is IERC721 {\n    string private _name;\n    string private _symbol;\n    Art[] public arts;\n    uint256 private pendingArtCount;\n    mapping(uint256 => address) private _tokenOwner;\n    mapping(address => uint256) private _ownedTokensCount;\n    mapping(uint256 => address) private _tokenApprovals;\n    mapping(address => mapping(address => bool)) private _operatorApprovals;\n    mapping(uint256 => ArtTxn[]) private artTxns;\n    uint256 public index;\n    struct Art {\n        uint256 id;\n        string title;\n        string description;\n        uint256 price;\n        string date;\n        string authorName;\n        address payable author;\n        address payable owner;\n        uint256 status;\n        string image;\n    }\n    struct ArtTxn {\n        uint256 id;\n        uint256 price;\n        address seller;\n        address buyer;\n        uint256 txnDate;\n        uint256 status;\n    }\n    //d\n    event LogArtSold(\n        uint256 _tokenId,\n        string _title,\n        string _authorName,\n        uint256 _price,\n        address _author,\n        address _current_owner,\n        address _buyer\n    );\n    event LogArtTokenCreate(\n        uint256 _tokenId,\n        string _title,\n        string _category,\n        string _authorName,\n        uint256 _price,\n        address _author,\n        address _current_owner\n    );\n    event LogArtResell(uint256 _tokenId, uint256 _status, uint256 _price);\n\n    constructor(string memory name, string memory symbol) public {\n        _name = name;\n        _symbol = symbol;\n    }\n\n    function name() external view returns (string memory) {\n        return _name;\n    }\n\n    function symbol() external view returns (string memory) {\n        return _symbol;\n    }\n\n    function createTokenAndSellArt(\n        string memory _title,\n        string memory _description,\n        string memory _date,\n        string memory _authorName,\n        uint256 _price,\n        string memory _image\n    ) public {\n        require(bytes(_title).length > 0, \"The title cannot be empty\");\n        require(bytes(_date).length > 0, \"The Date cannot be empty\");\n        require(\n            bytes(_description).length > 0,\n            \"The description cannot be empty\"\n        );\n        require(_price > 0, \"The price cannot be empty\");\n        require(bytes(_image).length > 0, \"The image cannot be empty\");\n        Art memory _art = Art({\n            id: index,\n            title: _title,\n            description: _description,\n            price: _price,\n            date: _date,\n            authorName: _authorName,\n            author: msg.sender,\n            owner: msg.sender,\n            status: 1,\n            image: _image\n        });\n        arts.push(_art);\n        uint256 tokenId = arts.length - 1;\n        _mint(msg.sender, tokenId);\n        emit LogArtTokenCreate(\n            tokenId,\n            _title,\n            _date,\n            _authorName,\n            _price,\n            msg.sender,\n            msg.sender\n        );\n        index++;\n        pendingArtCount++;\n    }\n\n    function buyArt(uint256 _tokenId) public payable {\n        (\n            uint256 _id,\n            string memory _title,\n            ,\n            uint256 _price,\n            uint256 _status,\n            ,\n            string memory _authorName,\n            address _author,\n            address payable _current_owner,\n\n        ) = findArt(_tokenId);\n        require(_current_owner != address(0), \"Cannot be zero address\");\n        require(msg.sender != address(0), \"Cannot be zero address\");\n        require(msg.sender != _current_owner, \"Cannot be current owner\");\n        require(msg.value >= _price, \"Invalid Amount\");\n        require(arts[_tokenId].owner != address(0), \"Cannot be zero address\");\n\n        //transfer ownership of art\n        _transfer(_current_owner, msg.sender, _tokenId);\n        //return extra payment\n        if (msg.value > _price) msg.sender.transfer(msg.value - _price);\n        //make a payment\n        _current_owner.transfer(_price);\n        arts[_tokenId].owner = msg.sender;\n        arts[_tokenId].status = 0;\n        ArtTxn memory _artTxn = ArtTxn({\n            id: _id,\n            price: _price,\n            seller: _current_owner,\n            buyer: msg.sender,\n            txnDate: now,\n            status: _status\n        });\n        artTxns[_id].push(_artTxn);\n        pendingArtCount--;\n\n        emit LogArtSold(\n            _tokenId,\n            _title,\n            _authorName,\n            _price,\n            _author,\n            _current_owner,\n            msg.sender\n        );\n    }\n\n    function resellArt(uint256 _tokenId, uint256 _price) public payable {\n        require(msg.sender != address(0), \"Cannot be zero address\");\n        require(isOwnerOf(_tokenId, msg.sender), \"No one else\");\n        arts[_tokenId].status = 1;\n        arts[_tokenId].price = _price;\n        pendingArtCount++;\n        emit LogArtResell(_tokenId, 1, _price);\n    }\n\n    function findArt(uint256 _tokenId)\n        public\n        view\n        returns (\n            uint256,\n            string memory,\n            string memory,\n            uint256,\n            uint256 status,\n            string memory,\n            string memory,\n            address,\n            address payable,\n            string memory\n        )\n    {\n        Art memory art = arts[_tokenId];\n        return (\n            art.id,\n            art.title,\n            art.description,\n            art.price,\n            art.status,\n            art.date,\n            art.authorName,\n            art.author,\n            art.owner,\n            art.image\n        );\n    }\n\n    function findAllArt()\n        public\n        view\n        returns (\n            uint256[] memory,\n            address[] memory,\n            address[] memory,\n            uint256[] memory\n        )\n    {\n        uint256 arrLength = arts.length;\n        uint256[] memory ids = new uint256[](arrLength);\n        address[] memory authors = new address[](arrLength);\n        address[] memory owners = new address[](arrLength);\n        uint256[] memory status = new uint256[](arrLength);\n        for (uint256 i = 0; i < arrLength; ++i) {\n            Art memory art = arts[i];\n            ids[i] = art.id;\n            authors[i] = art.author;\n            owners[i] = art.owner;\n            status[i] = art.status;\n        }\n        return (ids, authors, owners, status);\n    }\n\n    function findAllPendingArt()\n        public\n        view\n        returns (\n            uint256[] memory,\n            address[] memory,\n            address[] memory,\n            uint256[] memory\n        )\n    {\n        if (pendingArtCount == 0) {\n            return (\n                new uint256[](0),\n                new address[](0),\n                new address[](0),\n                new uint256[](0)\n            );\n        } else {\n            uint256 arrLength = arts.length;\n            uint256[] memory ids = new uint256[](pendingArtCount);\n            address[] memory authors = new address[](pendingArtCount);\n            address[] memory owners = new address[](pendingArtCount);\n            uint256[] memory status = new uint256[](pendingArtCount);\n            uint256 idx = 0;\n            for (uint256 i = 0; i < arrLength; ++i) {\n                Art memory art = arts[i];\n                if (art.status == 1) {\n                    ids[idx] = art.id;\n                    authors[idx] = art.author;\n                    owners[idx] = art.owner;\n                    status[idx] = art.status;\n                    idx++;\n                }\n            }\n            return (ids, authors, owners, status);\n        }\n    }\n\n    function findMyArts() public view returns (uint256[] memory _myArts) {\n        require(msg.sender != address(0), \"Cannot be zero address\");\n        uint256 numOftokens = balanceOf(msg.sender);\n        if (numOftokens == 0) {\n            return new uint256[](0);\n        } else {\n            uint256[] memory myArts = new uint256[](numOftokens);\n            uint256 idx = 0;\n            uint256 arrLength = arts.length;\n            for (uint256 i = 0; i < arrLength; i++) {\n                if (_tokenOwner[i] == msg.sender) {\n                    myArts[idx] = i;\n                    idx++;\n                }\n            }\n            return myArts;\n        }\n    }\n\n    function getArtAllTxn(uint256 _tokenId)\n        public\n        view\n        returns (\n            uint256[] memory _id,\n            uint256[] memory _price,\n            address[] memory seller,\n            address[] memory buyer,\n            uint256[] memory _txnDate\n        )\n    {\n        ArtTxn[] memory artTxnList = artTxns[_tokenId];\n        uint256 arrLength = artTxnList.length;\n        uint256[] memory ids = new uint256[](arrLength);\n        uint256[] memory prices = new uint256[](arrLength);\n        address[] memory sellers = new address[](arrLength);\n        address[] memory buyers = new address[](arrLength);\n        uint256[] memory txnDates = new uint256[](arrLength);\n        for (uint256 i = 0; i < artTxnList.length; ++i) {\n            ArtTxn memory artTxn = artTxnList[i];\n            ids[i] = artTxn.id;\n            prices[i] = artTxn.price;\n            sellers[i] = artTxn.seller;\n            buyers[i] = artTxn.buyer;\n            txnDates[i] = artTxn.txnDate;\n        }\n        return (ids, prices, sellers, buyers, txnDates);\n    }\n\n    function _transfer(\n        address _from,\n        address _to,\n        uint256 _tokenId\n    ) private {\n        _ownedTokensCount[_to]++;\n        _ownedTokensCount[_from]--;\n        _tokenOwner[_tokenId] = _to;\n        emit Transfer(_from, _to, _tokenId);\n    }\n\n    function _mint(address _to, uint256 tokenId) internal {\n        require(_to != address(0), \"Cannot be zero address\");\n        require(!_exists(tokenId), \"\");\n        _tokenOwner[tokenId] = _to;\n        _ownedTokensCount[_to]++;\n        emit Transfer(address(0), _to, tokenId);\n    }\n\n    function _exists(uint256 tokenId) internal view returns (bool) {\n        address owner = _tokenOwner[tokenId];\n        return owner != address(0);\n    }\n\n    function balanceOf(address _owner) public override view returns (uint256) {\n        return _ownedTokensCount[_owner];\n    }\n\n    function ownerOf(uint256 _tokenId)\n        public\n        override\n        view\n        returns (address _owner)\n    {\n        _owner = _tokenOwner[_tokenId];\n    }\n\n    function approve(address _to, uint256 _tokenId) public override payable {\n        require(isOwnerOf(_tokenId, msg.sender), \"No one else\");\n        _tokenApprovals[_tokenId] = _to;\n        emit Approval(msg.sender, _to, _tokenId);\n    }\n\n    function transferFrom(\n        address _from,\n        address _to,\n        uint256 _tokenId\n    ) public override payable {\n        require(_to != address(0), \"Cannot be zero address\");\n        require(isOwnerOf(_tokenId, _from), \"Invalid owner\");\n        require(isApproved(_to, _tokenId), \"Wrong approval\");\n        _transfer(_from, _to, _tokenId);\n    }\n\n    function transfer(address _to, uint256 _tokenId) public {\n        require(_to != address(0), \"Cannot be zero address\");\n        require(isOwnerOf(_tokenId, msg.sender), \"No one else\");\n        _transfer(msg.sender, _to, _tokenId);\n    }\n\n    function getApproved(uint256 tokenId)\n        public\n        override\n        view\n        returns (address)\n    {\n        require(_exists(tokenId), \"Does not exist\");\n        return _tokenApprovals[tokenId];\n    }\n\n    function setApprovalForAll(address operator, bool _approved)\n        public\n        override\n    {\n        require(operator != msg.sender, \"Operator should be current owner\");\n        _operatorApprovals[msg.sender][operator] = _approved;\n        emit ApprovalForAll(msg.sender, operator, _approved);\n    }\n\n    function isApprovedForAll(address owner, address operator)\n        public\n        override\n        view\n        returns (bool)\n    {\n        return _operatorApprovals[owner][operator];\n    }\n\n    function safeTransferFrom(\n        address from,\n        address to,\n        uint256 tokenId\n    ) public override payable {\n        // NOT IMPLEMENTED\n    }\n\n    function safeTransferFrom(\n        address from,\n        address to,\n        uint256 tokenId,\n        bytes memory data\n    ) public override payable {\n        // NOT IMPLEMENTED\n    }\n\n    function isOwnerOf(uint256 tokenId, address account)\n        public\n        view\n        returns (bool)\n    {\n        address owner = _tokenOwner[tokenId];\n        require(owner != address(0), \"Cannot be zero address\");\n        return owner == account;\n    }\n\n    function isApproved(address _to, uint256 _tokenId)\n        private\n        view\n        returns (bool)\n    {\n        return _tokenApprovals[_tokenId] == _to;\n    }\n}",
  "sourcePath": "C:\\Users\\Patterson Thamba\\Downloads\\Learn-Ethereum-master\\Learn-Ethereum-master\\Chapter07\\DigitalArtERC721Token\\contracts\\DigitizedArt.sol",
  "compiler": {
    "name": "solc",
    "version": "0.6.0+commit.26b70077.Emscripten.clang"
  },
  "schemaVersion": "3.2.0",
  "updatedAt": "2020-06-18T02:11:14.375Z",
  "networkType": "ethereum",
  "devdoc": {
    "methods": {}
  },
  "userdoc": {
    "methods": {}
  }
}