{
  "address": "0x4142A20B69CBa2c2FB321fF6e5fbf92036901712",
  "abi": [
    {
      "inputs": [],
      "stateMutability": "nonpayable",
      "type": "constructor"
    },
    {
      "inputs": [
        {
          "internalType": "address",
          "name": "sender",
          "type": "address"
        },
        {
          "internalType": "uint256",
          "name": "tokenId",
          "type": "uint256"
        },
        {
          "internalType": "address",
          "name": "owner",
          "type": "address"
        }
      ],
      "name": "ERC721IncorrectOwner",
      "type": "error"
    },
    {
      "inputs": [
        {
          "internalType": "address",
          "name": "operator",
          "type": "address"
        },
        {
          "internalType": "uint256",
          "name": "tokenId",
          "type": "uint256"
        }
      ],
      "name": "ERC721InsufficientApproval",
      "type": "error"
    },
    {
      "inputs": [
        {
          "internalType": "address",
          "name": "approver",
          "type": "address"
        }
      ],
      "name": "ERC721InvalidApprover",
      "type": "error"
    },
    {
      "inputs": [
        {
          "internalType": "address",
          "name": "operator",
          "type": "address"
        }
      ],
      "name": "ERC721InvalidOperator",
      "type": "error"
    },
    {
      "inputs": [
        {
          "internalType": "address",
          "name": "owner",
          "type": "address"
        }
      ],
      "name": "ERC721InvalidOwner",
      "type": "error"
    },
    {
      "inputs": [
        {
          "internalType": "address",
          "name": "receiver",
          "type": "address"
        }
      ],
      "name": "ERC721InvalidReceiver",
      "type": "error"
    },
    {
      "inputs": [
        {
          "internalType": "address",
          "name": "sender",
          "type": "address"
        }
      ],
      "name": "ERC721InvalidSender",
      "type": "error"
    },
    {
      "inputs": [
        {
          "internalType": "uint256",
          "name": "tokenId",
          "type": "uint256"
        }
      ],
      "name": "ERC721NonexistentToken",
      "type": "error"
    },
    {
      "anonymous": false,
      "inputs": [
        {
          "indexed": true,
          "internalType": "address",
          "name": "owner",
          "type": "address"
        },
        {
          "indexed": true,
          "internalType": "address",
          "name": "approved",
          "type": "address"
        },
        {
          "indexed": true,
          "internalType": "uint256",
          "name": "tokenId",
          "type": "uint256"
        }
      ],
      "name": "Approval",
      "type": "event"
    },
    {
      "anonymous": false,
      "inputs": [
        {
          "indexed": true,
          "internalType": "address",
          "name": "owner",
          "type": "address"
        },
        {
          "indexed": true,
          "internalType": "address",
          "name": "operator",
          "type": "address"
        },
        {
          "indexed": false,
          "internalType": "bool",
          "name": "approved",
          "type": "bool"
        }
      ],
      "name": "ApprovalForAll",
      "type": "event"
    },
    {
      "anonymous": false,
      "inputs": [
        {
          "indexed": false,
          "internalType": "uint256",
          "name": "_fromTokenId",
          "type": "uint256"
        },
        {
          "indexed": false,
          "internalType": "uint256",
          "name": "_toTokenId",
          "type": "uint256"
        }
      ],
      "name": "BatchMetadataUpdate",
      "type": "event"
    },
    {
      "anonymous": false,
      "inputs": [
        {
          "indexed": false,
          "internalType": "uint256",
          "name": "_tokenId",
          "type": "uint256"
        }
      ],
      "name": "MetadataUpdate",
      "type": "event"
    },
    {
      "anonymous": false,
      "inputs": [
        {
          "indexed": true,
          "internalType": "address",
          "name": "from",
          "type": "address"
        },
        {
          "indexed": true,
          "internalType": "address",
          "name": "to",
          "type": "address"
        },
        {
          "indexed": true,
          "internalType": "uint256",
          "name": "tokenId",
          "type": "uint256"
        }
      ],
      "name": "Transfer",
      "type": "event"
    },
    {
      "inputs": [
        {
          "internalType": "address",
          "name": "to",
          "type": "address"
        },
        {
          "internalType": "uint256",
          "name": "tokenId",
          "type": "uint256"
        }
      ],
      "name": "approve",
      "outputs": [],
      "stateMutability": "nonpayable",
      "type": "function"
    },
    {
      "inputs": [
        {
          "internalType": "address",
          "name": "owner",
          "type": "address"
        }
      ],
      "name": "balanceOf",
      "outputs": [
        {
          "internalType": "uint256",
          "name": "",
          "type": "uint256"
        }
      ],
      "stateMutability": "view",
      "type": "function"
    },
    {
      "inputs": [
        {
          "internalType": "uint256",
          "name": "",
          "type": "uint256"
        }
      ],
      "name": "bounties",
      "outputs": [
        {
          "internalType": "string",
          "name": "title",
          "type": "string"
        },
        {
          "internalType": "string",
          "name": "description",
          "type": "string"
        },
        {
          "internalType": "uint256",
          "name": "totalRequiredAmount",
          "type": "uint256"
        },
        {
          "internalType": "address",
          "name": "sponsorAddress",
          "type": "address"
        },
        {
          "internalType": "uint256",
          "name": "communityId",
          "type": "uint256"
        },
        {
          "internalType": "uint256",
          "name": "sponsoredAmount",
          "type": "uint256"
        },
        {
          "internalType": "uint256",
          "name": "numberOfSponsoringCommunities",
          "type": "uint256"
        }
      ],
      "stateMutability": "view",
      "type": "function"
    },
    {
      "inputs": [],
      "name": "bountyCounter",
      "outputs": [
        {
          "internalType": "uint256",
          "name": "",
          "type": "uint256"
        }
      ],
      "stateMutability": "view",
      "type": "function"
    },
    {
      "inputs": [
        {
          "internalType": "uint256",
          "name": "",
          "type": "uint256"
        }
      ],
      "name": "communities",
      "outputs": [
        {
          "internalType": "uint256",
          "name": "id",
          "type": "uint256"
        },
        {
          "internalType": "string",
          "name": "name",
          "type": "string"
        },
        {
          "internalType": "string",
          "name": "description",
          "type": "string"
        },
        {
          "internalType": "string",
          "name": "instagramHandle",
          "type": "string"
        },
        {
          "internalType": "string",
          "name": "linkedinHandle",
          "type": "string"
        },
        {
          "internalType": "string",
          "name": "twitterHandle",
          "type": "string"
        },
        {
          "internalType": "address",
          "name": "creatorAddress",
          "type": "address"
        },
        {
          "internalType": "uint256",
          "name": "followerCount",
          "type": "uint256"
        }
      ],
      "stateMutability": "view",
      "type": "function"
    },
    {
      "inputs": [],
      "name": "communityCounter",
      "outputs": [
        {
          "internalType": "uint256",
          "name": "",
          "type": "uint256"
        }
      ],
      "stateMutability": "view",
      "type": "function"
    },
    {
      "inputs": [
        {
          "internalType": "string",
          "name": "",
          "type": "string"
        }
      ],
      "name": "communityNameToId",
      "outputs": [
        {
          "internalType": "uint256",
          "name": "",
          "type": "uint256"
        }
      ],
      "stateMutability": "view",
      "type": "function"
    },
    {
      "inputs": [
        {
          "internalType": "uint256",
          "name": "_eventId",
          "type": "uint256"
        },
        {
          "internalType": "string",
          "name": "_title",
          "type": "string"
        },
        {
          "internalType": "string",
          "name": "_description",
          "type": "string"
        },
        {
          "internalType": "uint256",
          "name": "_totalRequiredAmount",
          "type": "uint256"
        },
        {
          "internalType": "string",
          "name": "_communityName",
          "type": "string"
        }
      ],
      "name": "createBounty",
      "outputs": [],
      "stateMutability": "nonpayable",
      "type": "function"
    },
    {
      "inputs": [],
      "name": "eventCounter",
      "outputs": [
        {
          "internalType": "uint256",
          "name": "",
          "type": "uint256"
        }
      ],
      "stateMutability": "view",
      "type": "function"
    },
    {
      "inputs": [
        {
          "internalType": "uint256",
          "name": "",
          "type": "uint256"
        }
      ],
      "name": "events",
      "outputs": [
        {
          "internalType": "uint256",
          "name": "id",
          "type": "uint256"
        },
        {
          "internalType": "string",
          "name": "name",
          "type": "string"
        },
        {
          "internalType": "string",
          "name": "description",
          "type": "string"
        },
        {
          "internalType": "uint256",
          "name": "startTime",
          "type": "uint256"
        },
        {
          "internalType": "uint256",
          "name": "endTime",
          "type": "uint256"
        },
        {
          "internalType": "string",
          "name": "location",
          "type": "string"
        },
        {
          "internalType": "uint256",
          "name": "capacity",
          "type": "uint256"
        },
        {
          "internalType": "uint256",
          "name": "availableSeats",
          "type": "uint256"
        },
        {
          "internalType": "uint256",
          "name": "ticketPrice",
          "type": "uint256"
        },
        {
          "internalType": "address",
          "name": "creatorAddress",
          "type": "address"
        },
        {
          "internalType": "uint256",
          "name": "creatorCommunityId",
          "type": "uint256"
        },
        {
          "internalType": "string",
          "name": "bountyTitle",
          "type": "string"
        },
        {
          "internalType": "string",
          "name": "bountyDescription",
          "type": "string"
        },
        {
          "internalType": "uint256",
          "name": "bountyAmount",
          "type": "uint256"
        },
        {
          "internalType": "uint256",
          "name": "totalSponsored",
          "type": "uint256"
        }
      ],
      "stateMutability": "view",
      "type": "function"
    },
    {
      "inputs": [
        {
          "internalType": "uint256",
          "name": "_communityId",
          "type": "uint256"
        }
      ],
      "name": "followCommunity",
      "outputs": [],
      "stateMutability": "nonpayable",
      "type": "function"
    },
    {
      "inputs": [
        {
          "internalType": "uint256",
          "name": "_eventId",
          "type": "uint256"
        }
      ],
      "name": "generateNFT",
      "outputs": [
        {
          "internalType": "uint256",
          "name": "",
          "type": "uint256"
        }
      ],
      "stateMutability": "payable",
      "type": "function"
    },
    {
      "inputs": [],
      "name": "getAllCommunities",
      "outputs": [
        {
          "internalType": "uint256[]",
          "name": "",
          "type": "uint256[]"
        },
        {
          "internalType": "string[]",
          "name": "",
          "type": "string[]"
        },
        {
          "internalType": "string[]",
          "name": "",
          "type": "string[]"
        },
        {
          "internalType": "string[]",
          "name": "",
          "type": "string[]"
        },
        {
          "internalType": "string[]",
          "name": "",
          "type": "string[]"
        },
        {
          "internalType": "string[]",
          "name": "",
          "type": "string[]"
        },
        {
          "internalType": "address[]",
          "name": "",
          "type": "address[]"
        },
        {
          "internalType": "uint256[]",
          "name": "",
          "type": "uint256[]"
        },
        {
          "internalType": "uint256[][]",
          "name": "",
          "type": "uint256[][]"
        },
        {
          "internalType": "string[][]",
          "name": "",
          "type": "string[][]"
        },
        {
          "internalType": "string[][]",
          "name": "",
          "type": "string[][]"
        }
      ],
      "stateMutability": "view",
      "type": "function"
    },
    {
      "inputs": [],
      "name": "getAllEvents",
      "outputs": [
        {
          "internalType": "uint256[]",
          "name": "",
          "type": "uint256[]"
        },
        {
          "internalType": "string[]",
          "name": "",
          "type": "string[]"
        },
        {
          "internalType": "string[]",
          "name": "",
          "type": "string[]"
        },
        {
          "internalType": "uint256[]",
          "name": "",
          "type": "uint256[]"
        },
        {
          "internalType": "uint256[]",
          "name": "",
          "type": "uint256[]"
        },
        {
          "internalType": "string[]",
          "name": "",
          "type": "string[]"
        },
        {
          "internalType": "uint256[]",
          "name": "",
          "type": "uint256[]"
        },
        {
          "internalType": "uint256[]",
          "name": "",
          "type": "uint256[]"
        },
        {
          "internalType": "uint256[]",
          "name": "",
          "type": "uint256[]"
        },
        {
          "internalType": "address[]",
          "name": "",
          "type": "address[]"
        },
        {
          "internalType": "uint256[]",
          "name": "",
          "type": "uint256[]"
        },
        {
          "internalType": "string[]",
          "name": "",
          "type": "string[]"
        },
        {
          "internalType": "string[]",
          "name": "",
          "type": "string[]"
        },
        {
          "internalType": "uint256[]",
          "name": "",
          "type": "uint256[]"
        }
      ],
      "stateMutability": "view",
      "type": "function"
    },
    {
      "inputs": [
        {
          "internalType": "uint256",
          "name": "tokenId",
          "type": "uint256"
        }
      ],
      "name": "getApproved",
      "outputs": [
        {
          "internalType": "address",
          "name": "",
          "type": "address"
        }
      ],
      "stateMutability": "view",
      "type": "function"
    },
    {
      "inputs": [
        {
          "internalType": "uint256",
          "name": "_bountyId",
          "type": "uint256"
        }
      ],
      "name": "getBountyDetails",
      "outputs": [
        {
          "internalType": "string",
          "name": "title",
          "type": "string"
        },
        {
          "internalType": "string",
          "name": "description",
          "type": "string"
        },
        {
          "internalType": "uint256",
          "name": "totalRequiredAmount",
          "type": "uint256"
        },
        {
          "internalType": "address",
          "name": "sponsorAddress",
          "type": "address"
        },
        {
          "internalType": "uint256",
          "name": "communityId",
          "type": "uint256"
        },
        {
          "internalType": "uint256",
          "name": "sponsoredAmount",
          "type": "uint256"
        },
        {
          "internalType": "uint256",
          "name": "numberOfSponsoringCommunities",
          "type": "uint256"
        }
      ],
      "stateMutability": "view",
      "type": "function"
    },
    {
      "inputs": [
        {
          "internalType": "uint256",
          "name": "_communityId",
          "type": "uint256"
        }
      ],
      "name": "getCommunityDetails",
      "outputs": [
        {
          "internalType": "uint256",
          "name": "id",
          "type": "uint256"
        },
        {
          "internalType": "string",
          "name": "name",
          "type": "string"
        },
        {
          "internalType": "string",
          "name": "description",
          "type": "string"
        },
        {
          "internalType": "string",
          "name": "instagramHandle",
          "type": "string"
        },
        {
          "internalType": "string",
          "name": "linkedinHandle",
          "type": "string"
        },
        {
          "internalType": "string",
          "name": "twitterHandle",
          "type": "string"
        },
        {
          "internalType": "address",
          "name": "creatorAddress",
          "type": "address"
        },
        {
          "internalType": "uint256",
          "name": "followerCount",
          "type": "uint256"
        },
        {
          "internalType": "uint256[]",
          "name": "eventIds",
          "type": "uint256[]"
        }
      ],
      "stateMutability": "view",
      "type": "function"
    },
    {
      "inputs": [
        {
          "internalType": "uint256",
          "name": "_eventId",
          "type": "uint256"
        }
      ],
      "name": "getEventDetails",
      "outputs": [
        {
          "internalType": "uint256",
          "name": "id",
          "type": "uint256"
        },
        {
          "internalType": "string",
          "name": "name",
          "type": "string"
        },
        {
          "internalType": "string",
          "name": "description",
          "type": "string"
        },
        {
          "internalType": "uint256",
          "name": "startTime",
          "type": "uint256"
        },
        {
          "internalType": "uint256",
          "name": "endTime",
          "type": "uint256"
        },
        {
          "internalType": "string",
          "name": "location",
          "type": "string"
        },
        {
          "internalType": "uint256",
          "name": "capacity",
          "type": "uint256"
        },
        {
          "internalType": "uint256",
          "name": "availableSeats",
          "type": "uint256"
        },
        {
          "internalType": "uint256",
          "name": "ticketPrice",
          "type": "uint256"
        },
        {
          "internalType": "address",
          "name": "creatorAddress",
          "type": "address"
        },
        {
          "internalType": "uint256",
          "name": "creatorCommunityId",
          "type": "uint256"
        },
        {
          "internalType": "string",
          "name": "bountyTitle",
          "type": "string"
        },
        {
          "internalType": "string",
          "name": "bountyDescription",
          "type": "string"
        },
        {
          "internalType": "uint256",
          "name": "bountyAmount",
          "type": "uint256"
        },
        {
          "components": [
            {
              "internalType": "address",
              "name": "userAddress",
              "type": "address"
            },
            {
              "internalType": "uint256",
              "name": "communityId",
              "type": "uint256"
            },
            {
              "internalType": "uint256",
              "name": "amountSponsored",
              "type": "uint256"
            }
          ],
          "internalType": "struct YourContract.Sponsor[]",
          "name": "sponsors",
          "type": "tuple[]"
        }
      ],
      "stateMutability": "view",
      "type": "function"
    },
    {
      "inputs": [
        {
          "internalType": "address",
          "name": "userAddress",
          "type": "address"
        }
      ],
      "name": "getUserActivity",
      "outputs": [
        {
          "internalType": "uint256[]",
          "name": "fundedEvents",
          "type": "uint256[]"
        },
        {
          "internalType": "uint256[]",
          "name": "joinedCommunities",
          "type": "uint256[]"
        },
        {
          "internalType": "uint256[]",
          "name": "createdEvents",
          "type": "uint256[]"
        },
        {
          "internalType": "uint256[]",
          "name": "fundedAmounts",
          "type": "uint256[]"
        },
        {
          "internalType": "string[]",
          "name": "fundedEventNames",
          "type": "string[]"
        },
        {
          "internalType": "string[]",
          "name": "joinedCommunityNames",
          "type": "string[]"
        },
        {
          "internalType": "string[]",
          "name": "createdEventNames",
          "type": "string[]"
        }
      ],
      "stateMutability": "view",
      "type": "function"
    },
    {
      "inputs": [
        {
          "internalType": "address",
          "name": "owner",
          "type": "address"
        },
        {
          "internalType": "address",
          "name": "operator",
          "type": "address"
        }
      ],
      "name": "isApprovedForAll",
      "outputs": [
        {
          "internalType": "bool",
          "name": "",
          "type": "bool"
        }
      ],
      "stateMutability": "view",
      "type": "function"
    },
    {
      "inputs": [],
      "name": "name",
      "outputs": [
        {
          "internalType": "string",
          "name": "",
          "type": "string"
        }
      ],
      "stateMutability": "view",
      "type": "function"
    },
    {
      "inputs": [
        {
          "internalType": "uint256",
          "name": "tokenId",
          "type": "uint256"
        }
      ],
      "name": "ownerOf",
      "outputs": [
        {
          "internalType": "address",
          "name": "",
          "type": "address"
        }
      ],
      "stateMutability": "view",
      "type": "function"
    },
    {
      "inputs": [
        {
          "internalType": "uint256",
          "name": "_eventId",
          "type": "uint256"
        }
      ],
      "name": "payBounty",
      "outputs": [],
      "stateMutability": "payable",
      "type": "function"
    },
    {
      "inputs": [
        {
          "internalType": "string",
          "name": "_name",
          "type": "string"
        },
        {
          "internalType": "string",
          "name": "_description",
          "type": "string"
        },
        {
          "internalType": "string",
          "name": "_instagramHandle",
          "type": "string"
        },
        {
          "internalType": "string",
          "name": "_linkedinHandle",
          "type": "string"
        },
        {
          "internalType": "string",
          "name": "_twitterHandle",
          "type": "string"
        }
      ],
      "name": "registerCommunity",
      "outputs": [
        {
          "internalType": "uint256",
          "name": "",
          "type": "uint256"
        }
      ],
      "stateMutability": "nonpayable",
      "type": "function"
    },
    {
      "inputs": [
        {
          "internalType": "string",
          "name": "_name",
          "type": "string"
        },
        {
          "internalType": "string",
          "name": "_description",
          "type": "string"
        },
        {
          "internalType": "string",
          "name": "_startTime",
          "type": "string"
        },
        {
          "internalType": "string",
          "name": "_endTime",
          "type": "string"
        },
        {
          "internalType": "string",
          "name": "_location",
          "type": "string"
        },
        {
          "internalType": "uint256",
          "name": "_capacity",
          "type": "uint256"
        },
        {
          "internalType": "uint256",
          "name": "_ticketPrice",
          "type": "uint256"
        },
        {
          "internalType": "string",
          "name": "_creatorCommunityName",
          "type": "string"
        },
        {
          "internalType": "string",
          "name": "_bountyTitle",
          "type": "string"
        },
        {
          "internalType": "string",
          "name": "_bountyDescription",
          "type": "string"
        },
        {
          "internalType": "uint256",
          "name": "_bountyAmount",
          "type": "uint256"
        }
      ],
      "name": "registerEvent",
      "outputs": [
        {
          "internalType": "uint256",
          "name": "",
          "type": "uint256"
        }
      ],
      "stateMutability": "nonpayable",
      "type": "function"
    },
    {
      "inputs": [
        {
          "internalType": "address",
          "name": "from",
          "type": "address"
        },
        {
          "internalType": "address",
          "name": "to",
          "type": "address"
        },
        {
          "internalType": "uint256",
          "name": "tokenId",
          "type": "uint256"
        }
      ],
      "name": "safeTransferFrom",
      "outputs": [],
      "stateMutability": "nonpayable",
      "type": "function"
    },
    {
      "inputs": [
        {
          "internalType": "address",
          "name": "from",
          "type": "address"
        },
        {
          "internalType": "address",
          "name": "to",
          "type": "address"
        },
        {
          "internalType": "uint256",
          "name": "tokenId",
          "type": "uint256"
        },
        {
          "internalType": "bytes",
          "name": "data",
          "type": "bytes"
        }
      ],
      "name": "safeTransferFrom",
      "outputs": [],
      "stateMutability": "nonpayable",
      "type": "function"
    },
    {
      "inputs": [
        {
          "internalType": "address",
          "name": "operator",
          "type": "address"
        },
        {
          "internalType": "bool",
          "name": "approved",
          "type": "bool"
        }
      ],
      "name": "setApprovalForAll",
      "outputs": [],
      "stateMutability": "nonpayable",
      "type": "function"
    },
    {
      "inputs": [
        {
          "internalType": "bytes4",
          "name": "interfaceId",
          "type": "bytes4"
        }
      ],
      "name": "supportsInterface",
      "outputs": [
        {
          "internalType": "bool",
          "name": "",
          "type": "bool"
        }
      ],
      "stateMutability": "view",
      "type": "function"
    },
    {
      "inputs": [],
      "name": "symbol",
      "outputs": [
        {
          "internalType": "string",
          "name": "",
          "type": "string"
        }
      ],
      "stateMutability": "view",
      "type": "function"
    },
    {
      "inputs": [
        {
          "internalType": "uint256",
          "name": "tokenId",
          "type": "uint256"
        }
      ],
      "name": "tokenURI",
      "outputs": [
        {
          "internalType": "string",
          "name": "",
          "type": "string"
        }
      ],
      "stateMutability": "view",
      "type": "function"
    },
    {
      "inputs": [
        {
          "internalType": "address",
          "name": "from",
          "type": "address"
        },
        {
          "internalType": "address",
          "name": "to",
          "type": "address"
        },
        {
          "internalType": "uint256",
          "name": "tokenId",
          "type": "uint256"
        }
      ],
      "name": "transferFrom",
      "outputs": [],
      "stateMutability": "nonpayable",
      "type": "function"
    },
    {
      "inputs": [
        {
          "internalType": "address",
          "name": "",
          "type": "address"
        }
      ],
      "name": "users",
      "outputs": [
        {
          "internalType": "address",
          "name": "userAddress",
          "type": "address"
        }
      ],
      "stateMutability": "view",
      "type": "function"
    }
  ],
  "transactionHash": "0x2e8ffcb10f0eddbfd4770c0a253337e98ba6dda520fa1afc35d8e15a0abbcf39",
  "args": [],
  "numDeployments": 2,
  "solcInputHash": "95de1c592932f790c5508b2b144c304f",
  "bytecode": "0x6080346200030f576001600160401b039060409080820183811182821017620002f9578252600b81526020926a115d995b9d151a58dad95d60aa1b84830152825183810181811083821117620002f957845260048152634556544b60e01b85820152825190828211620002f95760008054926001958685811c95168015620002ee575b89861014620002da578190601f9586811162000287575b5089908683116001146200022357849262000217575b5050600019600383901b1c191690861b1781555b8151938411620002035784548581811c91168015620001f8575b88821014620001e4578381116200019c575b508692841160011462000136578394959650926200012a575b5050600019600383901b1c191690821b1790555b51614fa69081620003158239f35b01519050388062000108565b9190601f1984169685845280842093905b8882106200018457505083859697106200016a575b505050811b0190556200011c565b015160001960f88460031b161c191690553880806200015c565b80878596829496860151815501950193019062000147565b8582528782208480870160051c8201928a8810620001da575b0160051c019086905b828110620001ce575050620000ef565b838155018690620001be565b92508192620001b5565b634e487b7160e01b82526022600452602482fd5b90607f1690620000dd565b634e487b7160e01b81526041600452602490fd5b015190503880620000af565b8480528a85208994509190601f198416865b8d82821062000270575050841162000256575b505050811b018155620000c3565b015160001960f88460031b161c1916905538808062000248565b8385015186558c9790950194938401930162000235565b9091508380528984208680850160051c8201928c8610620002d0575b918a91869594930160051c01915b828110620002c157505062000099565b8681558594508a9101620002b1565b92508192620002a3565b634e487b7160e01b83526022600452602483fd5b94607f169462000082565b634e487b7160e01b600052604160045260246000fd5b600080fdfe6102e080604052600436101561001457600080fd5b60003560e01c90816301ffc9a714613a3d5750806302ee08f31461331a57806306fdde031461327757806307a24a6a146131b7578063081812fc14613179578063095ea7b3146130925780630b79143014612f515780632184dd4d146129e257806323b872dd146129cb57806342842e0e1461299d5780634e8df85a1461273357806352c55db914612715578063584f3c3f14611e065780636352211e14611dd657806364090c9814611cb85780636f93ebe814611c5c57806370a0823114611c035780637a5b730b14611be55780638c605eb9146113ff57806395d89b411461132057806395dd0ed014610eb9578063a0d5978714610e9b578063a22cb46514610df6578063a87430ba14610dbb578063b88d4fde14610d4e578063c27a500d14610912578063c87b56dd146108b9578063dc2f87441461084f578063e0f3aa1114610620578063e590b56a1461053b578063e985e9c5146104e5578063ec38d5a0146102515763f0f284fc1461018b57600080fd5b3461024c57602036600319011261024c5760043580151580610240575b1561020757600052600c602052604060002060028101549061020360018060a01b0360038301541660048301546005840154906006850154926101f660016101ef88613c52565b9701613c52565b9660405197889788613e56565b0390f35b60405162461bcd60e51b8152602060048201526011602482015270125b9d985b1a5908189bdd5b9d1e481251607a1b6044820152606490fd5b50600f548111156101a8565b600080fd5b3461024c57602036600319011261024c57600435801515806104d9575b61027790614325565b600052600a60205260406000208061016052805490600381015490600481015460068201549160078101546008820154600160a01b6001900360098401541691600a84015493600d81015460c0526001016102d190613c52565b96610160516002016102e290613c52565b6101a052610160516005016102f690613c52565b61016051600b0161030690613c52565b9661016051600c0161031790613c52565b9961016051600f01549b61032a8d614364565b9c806040519e8f9061033c9082613b13565b528d60208101610200526020016102205261016051600f0160005260206000206000905b828210610491575050509360209b9996936104109996936103b96103a56103d8956104229f9c996040518060a052526101e06020819060a051015260a0510190613bc7565b60a05160408183039101526101a051613bc7565b92606060a0510152608060a051015260a05160a0818403910152613bc7565b9560c060a051015260e060a051015261010060a051015261012060a051015261014060a051015260a051610160818403910152613bc7565b9060a051610180818403910152613bc7565b9160c0516101a060a051015260a0516101c081850391015251918281520190610220519060005b8181106104595760a05180850390f35b825180516001600160a01b03168552602081810151818701526040918201519186019190915260609094019390920191600101610449565b60036001916040516104a281613ac2565b838060a01b038254168152838201546020820152600282015460408201526102005152602061020051016102005201910190610360565b50600e5481111561026e565b3461024c57604036600319011261024c576104fe613bec565b610506613c02565b9060018060a01b03809116600052600560205260406000209116600052602052602060ff604060002054166040519015158152f35b3461024c57602036600319011261024c5760043560005260086020526040600020805461056a60018301613c52565b9161057760028201613c52565b61061161058660038401613c52565b61060361059560048601613c52565b6105f56105a460058801613c52565b936105e7600760018060a01b0360068b015416990154976105d96040519c8d9c8d5260208d61010091829101528d0190613bc7565b908b820360408d0152613bc7565b9089820360608b0152613bc7565b908782036080890152613bc7565b9085820360a0870152613bc7565b9160c084015260e08301520390f35b3461024c5760208060031936011261024c576001600160a01b03610642613bec565b16600052600b81526040600020600161065c8183016142d6565b92610669600284016142d6565b90610676600485016142d6565b6106808651614ed8565b9161068b8751614f27565b936106968151614f27565b9580808a6106a48751614f27565b9a600560009101925b6107f2575b505050806000905b6107a4575b506000905b61074f575b505093610725610741946107176102039895610709610733966106fd9c9a6040519e8f9e8f9160e0835260e0830190613d2d565b92818403910152613d2d565b908b820360408d0152613d2d565b9089820360608b0152613d2d565b908782036080890152613d61565b9085820360a0870152613d61565b9083820360c0850152613d61565b845181101561079f5761079981610767849388614f5c565b51600052600a865261077e83604060002001613c52565b610788828d614f5c565b52610793818c614f5c565b506141eb565b906106c4565b6106c9565b83518110156107ed57806107bb6107e79286614f5c565b51600052600886526107d283604060002001613c52565b6107dc828c614f5c565b52610793818b614f5c565b816106ba565b6106bf565b815181101561084a5761082b818361080d8261084296614f5c565b51600052858a528b6108258360406000205492614f5c565b52614f5c565b51600052600a87526107d284604060002001613c52565b8b90836106ad565b6106b2565b3461024c57602036600319011261024c57600435600052600c602052604060002061087981613c52565b61020361088860018401613c52565b9260028101549060018060a01b03600382015416600482015490600660058401549301549360405197889788613e56565b3461024c57602036600319011261024c576004356108d681614047565b5060005260066020526102036108ef6040600020613c52565b60006040516108fd81613add565b52604051918291602083526020830190613bc7565b3461024c57600036600319011261024c57600e5461092f81614ed8565b61093882614f27565b9061094283614f27565b6102a05261094f83614ed8565b60e05261095b83614ed8565b6101e05261096883614f27565b6102805261097583614ed8565b6102605261098283614ed8565b6101805261098f83614ed8565b6101205261099c83614ed8565b610240526109a983614ed8565b610100526109b683614f27565b610140526109c383614f27565b6102c0526109d083614ed8565b60805260016101c0525b6101c051838111610c175780600052600a6020526040600020805482600019810111610c0157610a10600d936000190185614f5c565b52610a1d60018201613c52565b610a2e6000196101c0510186614f5c565b52610a406000196101c0510185614f5c565b50610a4d60028201613c52565b610a616000196101c051016102a051614f5c565b52610a766000196101c051016102a051614f5c565b506003810154610a8f6000196101c0510160e051614f5c565b526004810154610aa96000196101c051016101e051614f5c565b52610ab660058201613c52565b610aca6000196101c0510161028051614f5c565b52610adf6000196101c0510161028051614f5c565b506006810154610af96000196101c0510161026051614f5c565b526007810154610b136000196101c0510161018051614f5c565b526008810154610b2d6000196101c0510161012051614f5c565b5260018060a01b03600982015416610b4f6000196101c0510161024051614f5c565b52600a810154610b696000196101c0510161010051614f5c565b52610b76600b8201613c52565b610b8a6000196101c0510161014051614f5c565b52610b9f6000196101c0510161014051614f5c565b50610bac600c8201613c52565b610bc06000196101c051016102c051614f5c565b52610bd56000196101c051016102c051614f5c565b500154610beb6000196101c05101608051614f5c565b52610bf86101c0516141eb565b6101c0526109da565b634e487b7160e01b600052601160045260246000fd5b506040519182916101c083526101c08301610c3191613d2d565b8281036020840152610c4291613d61565b81810360408301526102a05190610c5891613d61565b818103606083015260e05190610c6d91613d2d565b81810360808301526101e05190610c8391613d2d565b81810360a08301526102805190610c9991613d61565b81810360c08301526102605190610caf91613d2d565b81810360e08301526101805190610cc591613d2d565b8181036101008301526101205190610cdc91613d2d565b8181036101208301526102405190610cf391613dbd565b8181036101408301526101005190610d0a91613d2d565b8181036101608301526101405190610d2191613d61565b8181036101808301526102c05190610d3891613d61565b8181036101a08301526080519061020391613d2d565b3461024c57608036600319011261024c57610d67613bec565b610d6f613c02565b90604435606435926001600160401b03841161024c573660238501121561024c57610da7610db9943690602481600401359101613b4f565b92610db3838383613ea8565b33614082565b005b3461024c57602036600319011261024c5760206001600160a01b0380610ddf613bec565b16600052600b825260406000205416604051908152f35b3461024c57604036600319011261024c57610e0f613bec565b6024359081151580920361024c576001600160a01b0316908115610e8257336000526005602052604060002082600052602052604060002060ff1981541660ff83161790556040519081527f17307eab39ab6107e8899845ad3d59bd9653f200f220920489ca2b5937696c3160203392a3005b604051630b61174360e31b815260048101839052602490fd5b3461024c57600036600319011261024c576020600f54604051908152f35b3461024c57600036600319011261024c57600d54610ed681614ed8565b610edf82614f27565b91610ee981614f27565b610ef282614f27565b90610efc83614f27565b610f0584614f27565b610f0e85614ed8565b90610f1886614ed8565b92610f2287614364565b95610f306040519788613b13565b878752610f4c601f19610f428a614364565b0160208901614f0a565b610f5588614f27565b95610f5f89614f27565b986001905b808211156110855750506040519a8b9a610160808d528c01610f8591613d2d565b8b810360208d0152610f9691613d61565b8a810360408c0152610fa791613d61565b89810360608b0152610fb891613d61565b88810360808a0152610fc991613d61565b87810360a0890152610fda91613d61565b86810360c0880152610feb91613dbd565b85810360e0870152610ffc91613d2d565b848103610100860152825180825260208201918160051b810160200194602001926000915b8383106110505788806102038a6110418b8b858203610120870152613dfa565b90838203610140850152613dfa565b9193969750919394602080611071600193601f198682030187528a51613d2d565b980193019301909288979695949293611021565b999b9693909a95928b60009a9693999a5260086020526040600020988954988d600019810111610c01579b9c9b8e9a8d9a6110c46000198d018c614f5c565b526110d160018201613c52565b6110df6000198d0184614f5c565b526110ee6000198c0183614f5c565b506110fb60028201613c52565b6111096000198d0185614f5c565b526111186000198c0184614f5c565b5061112560038201613c52565b6111336000198d0186614f5c565b526111426000198c0185614f5c565b5061114f60048201613c52565b61115d6000198d0187614f5c565b5261116c6000198c0186614f5c565b5061117960058201613c52565b6111876000198d0188614f5c565b526111966000198c0187614f5c565b5060068101546001600160a01b03166111b36000198d0189614f5c565b5260078101546111c76000198d018a614f5c565b526009016111d4906142d6565b9d8e9b8c6111e66000198e018c614f5c565b526111f56000198d018b614f5c565b508d8d5161120290614f27565b908d6000190161121191614f5c565b526112206000198d018f614f5c565b508c5161122c90614f27565b60009c9061123e600019830184614f5c565b526000190161124c91614f5c565b5060009b5b518c10156112f6576112648f8d90614f5c565b51600052600a60205260406000209a610c01578f9b8f9b8f9d8f908f9184926000190161129091614f5c565b518261129e60018601613c52565b6112a88284614f5c565b526112b291614f5c565b5060009f600019016112c391614f5c565b51916002016112d190613c52565b6112db8284614f5c565b526112e591614f5c565b506112ef906141eb565b9b9a611251565b93979c9195995093979d9c5061130e919599506141eb565b909b9a9998979695949392919b610f64565b3461024c57600036600319011261024c576040516000600180549061134482613c18565b808552918181169081156113d8575060011461137f575b6102038461136b81860382613b13565b604051918291602083526020830190613bc7565b600081815292507fb10e2d527612073b26eecdfd717e6a320cf44b4afac2b0732d9fcbe2b7fa0cf65b8284106113c057505050810160200161136b8261135b565b805460208587018101919091529093019281016113a8565b60ff191660208087019190915292151560051b8501909201925061136b915083905061135b565b3461024c5761016036600319011261024c576004356001600160401b03811161024c57611430903690600401613b86565b6024356001600160401b03811161024c5761144f903690600401613b86565b906044356001600160401b03811161024c5761146f903690600401613b86565b916064356001600160401b03811161024c5761148f903690600401613b86565b926084356001600160401b03811161024c576114af903690600401613b86565b9360e4356001600160401b03811161024c576114cf903690600401613b86565b94610104356001600160401b03811161024c576114f0903690600401613b86565b91610124356001600160401b03811161024c57602061151661152a923690600401613b86565b988160405193828580945193849201613ba4565b81016009815203019020549361154185151561428a565b61154f600d548611156141fa565b61155a600e546141eb565b9586600e5586600052600a6020526040600020978789558051906001600160401b0382116118a157819061159160018c0154613c18565b601f8111611b92575b50602090601f8311600114611b2057600092611b15575b50508160011b916000199060031b1c19161760018901555b8051906001600160401b0382116118a1576115e760028a0154613c18565b601f8111611ace575b50602090601f8311600114611a5857918061163995949261162f94600092611a4d575b50508160011b916000199060031b1c19161760028a0155614388565b6003880155614388565b60048601558051906001600160401b0382116118a157819061165e6005880154613c18565b601f81116119fa575b50602090601f831160011461198d57600092611982575b50508160011b916000199060031b1c19161760058501555b60a435806006860155600785015560c435600885015560098401336001600160601b0360a01b82541617905581600a8501558051906001600160401b0382116118a15781906116e8600b870154613c18565b601f811161192f575b50602090601f83116001146118c2576000926118b7575b50508160011b916000199060031b1c191617600b8401555b83516001600160401b0381116118a15761173d600c850154613c18565b601f8111611858575b50602094601f82116001146117ec579481929394956000926117e1575b50508160011b916000199060031b1c191617600c8401555b670de0b6b3a76400006101443581810294918115918604141715610c0157600e81602095600d60009401550155600052600882526117c0816009604060002001614255565b33600052600b82526117d9816004604060002001614255565b604051908152f35b015190508580611763565b601f19821695600c860160005260206000209160005b88811061184057508360019596979810611827575b505050811b01600c84015561177b565b015160001960f88460031b161c19169055858080611817565b91926020600181928685015181550194019201611802565b600c85016000526020600020601f830160051c81016020841061189a575b601f90920160051c01905b81811061188e5750611746565b60008155600101611881565b5080611876565b634e487b7160e01b600052604160045260246000fd5b015190508680611708565b600b87016000908152602081209350601f198516905b81811061191757509084600195949392106118fe575b505050811b01600b840155611720565b015160001960f88460031b161c191690558680806118ee565b929360206001819287860151815501950193016118d8565b909150600b86016000526020600020601f840160051c81016020851061197b575b90849392915b601f830160051c8201811061196c5750506116f1565b60008155859450600101611956565b5080611950565b01519050878061167e565b600588016000908152602081209350601f198516905b8181106119e257509084600195949392106119c9575b505050811b016005850155611696565b015160001960f88460031b161c191690558780806119b9565b929360206001819287860151815501950193016119a3565b909150600587016000526020600020601f840160051c810160208510611a46575b90849392915b601f830160051c82018110611a37575050611667565b60008155859450600101611a21565b5080611a1b565b015190508c80611613565b9060028a016000526020600020916000601f198516905b818110611ab6575092600192859261162f9661163999989610611a9d575b505050811b0160028a0155614388565b015160001960f88460031b161c191690558c8080611a8d565b92936020600181928786015181550195019301611a6f565b60028a016000526020600020601f840160051c810160208510611b0e575b601f830160051c82018110611b025750506115f0565b60008155600101611aec565b5080611aec565b015190508b806115b1565b925060018b016000526020600020906000935b601f1984168510611b77576001945083601f19811610611b5e575b505050811b0160018901556115c9565b015160001960f88460031b161c191690558b8080611b4e565b81810151835560209485019460019093019290910190611b33565b90915060018b016000526020600020601f840160051c810160208510611bde575b90849392915b601f830160051c82018110611bcf57505061159a565b60008155859450600101611bb9565b5080611bb3565b3461024c57600036600319011261024c576020600d54604051908152f35b3461024c57602036600319011261024c576001600160a01b03611c24613bec565b168015611c435760005260036020526020604060002054604051908152f35b6040516322718ad960e21b815260006004820152602490fd5b3461024c57602036600319011261024c576004356001600160401b03811161024c57611ca56020611c9281933690600401613b86565b8160405193828580945193849201613ba4565b8101600981520301902054604051908152f35b3461024c57602036600319011261024c5760043580151580611dca575b611cde906141fa565b60005260086020526040600020805461020360018060a01b03600684015416600784015493611d0f60018201613c52565b94611db1611d1f60028401613c52565b92611da3611d2f60038301613c52565b611d95611d3e60048501613c52565b91611d87611d5a6009611d5360058901613c52565b97016142d6565b98611d796040519e8f9e8f908152610120908160208201520190613bc7565b8d810360408f015290613bc7565b908b820360608d0152613bc7565b9089820360808b0152613bc7565b9087820360a0890152613bc7565b9260c086015260e0850152838203610100850152613d2d565b50600d54811115611cd5565b3461024c57602036600319011261024c576020611df4600435614047565b6040516001600160a01b039091168152f35b60208060031936011261024c57600435611e24600e54821115614325565b600052600a8152604060002090600882015434036126d8576007820180541561269e57600190816007540191826007553360405195611e6287613ac2565b602a96878152868101926040368537815115612688576030808553825186101561268857607860218401536029905b86821161264a57505061260757611ea786614d7a565b9760405193888501926251525f60e81b845251908160238701611ec992613ba4565b84019860238a01605f60f81b905284815160249b8c93828d868401920191611ef092613ba4565b010360048101865201611f039085613b13565b611f0c87614d7a565b9260039485820154611f1d90614bdd565b926004830154611f2c90614bdd565b91600a840154611f3b90614d7a565b604051607b60f81b818f015268113730b6b2911d101160b91b60218201529788979196918e9190611f70868b01898f01614a41565b61088b60f21b8082527f226465736372697074696f6e223a20224576656e74205469636b6574222c00006002830152691134b6b0b3b2911d101160b11b85830152955191611fc390839089840190613ba4565b0193858501526e2261747472696275746573223a205b60881b602c850152603b84017f7b2274726169745f74797065223a20224576656e74204944222c202276616c7590526432911d101160d91b9384605b82015281519182846060840192019161202d92613ba4565b019162089f4b60ea1b968388606081960152606381017f7b2274726169745f74797065223a20224c6f636174696f6e222c202276616c759052856083820152608801906005019061207d91614a41565b8381527f7b2274726169745f74797065223a202253746172742054696d65222c202276618c82015266363ab2911d101160c91b602382015281519290916120ca9184918885019101613ba4565b01928301527f7b2274726169745f74797065223a2022456e642054696d65222c202276616c75602d830152604d82015281519161210f90839060528401908e01613ba4565b01906052820152605581017f7b2274726169745f74797065223a202243726561746f7220436f6d6d756e69749052703c9024a2111610113b30b63ab2911d101160791b6075820152815191828a6086840192019161216c92613ba4565b0161227d60f01b608682015260888101615d7d60f01b905203606a81018252608a016121989082613b13565b6040516121a481613ac2565b60408082527f4142434445464748494a4b4c4d4e4f505152535455565758595a616263646566888301527f6768696a6b6c6d6e6f707172737475767778797a303132333435363738392b2f908201526121fc91614ac4565b9160405180938782017f646174613a6170706c69636174696f6e2f6a736f6e3b6261736536342c00000090528051908189603d850192019161223d92613ba4565b810103601d81018452603d016122539084613b13565b60405161225f81613add565b6000815233156125ef5760008681526002885260409020546001600160a01b0316801515908790826125bd575b33600052858a5260406000208581540190558160005260028a526040600020336001600160601b0360a01b82541617905533907fddf252ad1be2c89b69c2b068fc378daa952ba7f163c4a11628f55a4df523b3ef600080a46125a557333b61248b575b5090919293949585600052600687526040600020918451916001600160401b038311612477575090829161232588959454613c18565b601f8111612421575b508895601f83116001146123b85782916123999783926000946123ad575b50501b9160001990851b1c19161790555b7ff8e1a15aba9398e019f0b49df1a4fde98ee17ae345cb5f6b5e2c27f5033e8ce786604051848152a133600052600b8652604060002001614255565b6123a38154614a34565b9055604051908152f35b015192508b8061234c565b8996601f9392931983169185600052886000209260005b8181106124085750612399995084116123f0575b505050811b01905561235d565b015160001983871b60f8161c191690558980806123e3565b8284015185558d9a8d9a509487019493840193016123cf565b9091928094955060005288600020601f840160051c8101918a851061246d575b90601f8a9796959493920160051c01905b81811061245f575061232e565b600081558996508201612452565b9091508190612441565b634e487b7160e01b60009081526041600452fd5b6124c6878992604051809381926000630a85bd0160e11b978885523360048601528401528b6044840152608060648401526084830190613bc7565b03816000335af160009181612565575b5061252e5788883d15612527573d6124ed81613b34565b906124fb6040519283613b13565b81523d60008383013e5b8051918261252457604051633250574960e11b81523360048201528490fd5b01fd5b6060612505565b63ffffffff60e099939495969798991b160361255057959493929190876122ef565b604051633250574960e11b8152336004820152fd5b9091508881813d831161259e575b61257d8183613b13565b8101031261024c57516001600160e01b03198116810361024c57908a6124d6565b503d612573565b6040516339e3563760e11b8152600060048201528890fd5b60008281526004602052604080822080546001600160a01b0319169055828252878c529020805460001901905561228c565b604051633250574960e11b8152600060048201528890fd5b6064876040519062461bcd60e51b825280600483015260248201527f537472696e67733a20686578206c656e67746820696e73756666696369656e746044820152fd5b9091600f8116820190818311610c01576126829160f81b6001600160f81b03191660001a6126788587614956565b5360041c92614a34565b90611e91565b634e487b7160e01b600052603260045260246000fd5b60405162461bcd60e51b81526004810183905260126024820152714e6f20617661696c61626c6520736561747360701b6044820152606490fd5b6064906040519062461bcd60e51b825260048201526016602482015275496e636f7272656374207469636b657420707269636560501b6044820152fd5b3461024c57600036600319011261024c576020600e54604051908152f35b60208060031936011261024c576004359081600052600a8152604060002090341561295957600d820154801561291457600e83019061277334835461437b565b116128cf5760009260005b33600052600b80855260028060406000200180548410156128bf57836127a39161423d565b929054600393841b1c600052600880885260406000200133600052875260ff604060002054166127de575050506127d9906141eb565b61277e565b869750906127f9929391600f9596975260406000200161423d565b9054911b1c915b016040519161280e83613ac2565b33835284830190815260408301903482528254600160401b8110156118a15760018101808555811015612688576002936000526003876000209102019360018060a01b039051166001600160601b0360a01b8554161784555160018401555191015561287b34825461437b565b905533600052600b8152612896826001604060002001614255565b33600052600b81526005604060002001916000525260406000206128bb34825461437b565b9055005b50505050600f9093919293612800565b60405162461bcd60e51b815260048101839052601760248201527f4578636565647320726571756972656420616d6f756e740000000000000000006044820152606490fd5b60405162461bcd60e51b815260048101839052601860248201527f4e6f20626f756e747920666f722074686973206576656e7400000000000000006044820152606490fd5b6064906040519062461bcd60e51b82526004820152601d60248201527f416d6f756e74206d7573742062652067726561746572207468616e20300000006044820152fd5b3461024c57610db96129ae36613cf8565b90604051926129bc84613add565b60008452610db3838383613ea8565b3461024c57610db96129dc36613cf8565b91613ea8565b3461024c5760a036600319011261024c576024356001600160401b03811161024c57612a12903690600401613b86565b6044356001600160401b03811161024c57612a31903690600401613b86565b6084356001600160401b03811161024c576020612a55612a69923690600401613b86565b600435151580612f43575b611c9290614325565b8101600981520301902054612a7f81151561428a565b612a8a600f546141eb565b80600f55600052600c60205260406000209083516001600160401b0381116118a157612ab68354613c18565b601f8111612efb575b50806020601f8211600114612e9757600091612e8c575b508160011b916000199060031b1c19161782555b82516001600160401b0381116118a157612b076001840154613c18565b601f8111612e43575b506020601f8211600114612dd1579181600094926006948691612dc6575b508160011b9186199060031b1c19161760018301555b606435600283015560038201336001600160601b0360a01b82541617905560048201558260058201550155600435600052600a602052600b60406000200182516001600160401b0381116118a157612b9c8254613c18565b601f8111612d7e575b506020601f8211600114612d185781929394600092612d0d575b50508160011b916000199060031b1c19161790555b600435600052600a602052600c60406000200181516001600160401b0381116118a157612c018254613c18565b601f8111612cc5575b50602092601f8211600114612c615792819293600092612c56575b50508160011b916000199060031b1c19161790555b600435600052600a602052606435600d60406000200155600080f35b015190508380612c25565b601f198216938360005260206000209160005b868110612cad5750836001959610612c94575b505050811b019055612c3a565b015160001960f88460031b161c19169055838080612c87565b91926020600181928685015181550194019201612c74565b826000526020600020601f830160051c81019160208410612d03575b601f0160051c01905b818110612cf75750612c0a565b60008155600101612cea565b9091508190612ce1565b015190508480612bbf565b601f198216908360005260206000209160005b818110612d6657509583600195969710612d4d575b505050811b019055612bd4565b015160001960f88460031b161c19169055848080612d40565b9192602060018192868b015181550194019201612d2b565b826000526020600020601f830160051c81019160208410612dbc575b601f0160051c01905b818110612db05750612ba5565b60008155600101612da3565b9091508190612d9a565b905086015188612b2e565b6001840160005260206000209060005b601f1984168110612e2b5750826006949260019260009795601f19811610612e13575b5050811b016001830155612b44565b880151871960f88460031b161c191690558880612e04565b9091602060018192858a015181550193019101612de1565b600184016000526020600020601f830160051c810160208410612e85575b601f90920160051c01905b818110612e795750612b10565b60008155600101612e6c565b5080612e61565b905085015186612ad6565b6000858152602081209250601f198416905b818110612ee357509083600194939210612eca575b5050811b018255612aea565b87015160001960f88460031b161c191690558680612ebe565b9192602060018192868c015181550194019201612ea9565b836000526020600020601f830160051c81019160208410612f39575b601f0160051c01905b818110612f2d5750612abf565b60008155600101612f20565b9091508190612f17565b50600e546004351115612a60565b3461024c57602036600319011261024c57600435600052600a602052604060002080549060018101612f8290613c52565b90612f8f60028201613c52565b9260038201549060048301549060058401612fa990613c52565b6006850154600786015460088701546009880154600a89015493946001600160a01b039091169290612fdd600b8b01613c52565b96612fea600c8c01613c52565b98600d8c01549b600e01549a6040519e8f9e8f9485526101e0806020870152850161301491613bc7565b848103604086015261302591613bc7565b926060015260808d01528b810360a08d015261304091613bc7565b9460c08b015260e08a015261010089015261012088015261014087015285810361016087015261306f91613bc7565b84810361018086015261308191613bc7565b916101a08401526101c08301520390f35b3461024c57604036600319011261024c576130ab613bec565b6024356130b781614047565b33151580613166575b80613139575b613121576001600160a01b039283169282918491167f8c5be1e5ebec7d5bd14f71427d1e84f3dd0314c0f7b2291e5b200ac8c7c3b925600080a4600090815260046020526040902080546001600160a01b0319169091179055005b60405163a9fbf51f60e01b8152336004820152602490fd5b5060018060a01b038116600052600560205260406000203360005260205260ff60406000205416156130c6565b506001600160a01b0381163314156130c0565b3461024c57602036600319011261024c5760043561319681614047565b506000526004602052602060018060a01b0360406000205416604051908152f35b3461024c5760208060031936011261024c576004356131da600d548211156141fa565b80600052600882526040600020600881013360005280845260ff6040600020541661323e57926007600b92610db9953360005283526040600020600160ff198254161790550161322a81546141eb565b905533600052526002604060002001614255565b60405162461bcd60e51b8152600481018590526011602482015270416c726561647920666f6c6c6f77696e6760781b6044820152606490fd5b3461024c57600036600319011261024c576040516000805461329881613c18565b808452906001908181169081156113d857506001146132c1576102038461136b81860382613b13565b600080805292507f290decd9548b62a8d60345a988386fc84ba6bc95484008f6362f93160ef3e5635b82841061330257505050810160200161136b8261135b565b805460208587018101919091529093019281016132ea565b3461024c5760a036600319011261024c576004356001600160401b03811161024c5761334a903690600401613b86565b6024356001600160401b03811161024c57613369903690600401613b86565b6044356001600160401b03811161024c57613388903690600401613b86565b906064356001600160401b03811161024c576133a8903690600401613b86565b6084356001600160401b03811161024c576133c7903690600401613b86565b9060405160208187516133dd8183858c01613ba4565b81016009815203019020546139f8576133f7600d546141eb565b9384600d5584600052600860205260406000209385855586516001600160401b0381116118a15761342b6001870154613c18565b601f81116139b1575b50806020601f821160011461394357600091613938575b508160011b916000199060031b1c19161760018601555b8051906001600160401b0382116118a15781906134826002880154613c18565b601f81116138e5575b50602090601f83116001146138785760009261386d575b50508160011b916000199060031b1c19161760028501555b8051906001600160401b0382116118a15781906134da6003870154613c18565b601f811161381a575b50602090601f83116001146137ad576000926137a2575b50508160011b916000199060031b1c19161760038401555b8051906001600160401b0382116118a15781906135326004860154613c18565b601f811161374f575b50602090601f83116001146136e2576000926136d7575b50508160011b916000199060031b1c19161760048301555b8051906001600160401b0382116118a1576135886005840154613c18565b601f811161368c575b50916020949184938690601f83116001146136155792826135f795936006938a9660009261360a575b50508160011b916000199060031b1c19161760058201555b0180546001600160a01b03191633179055604051815190938492829084908601613ba4565b8101600981520301902055604051908152f35b015190508a806135ba565b90601f1983169160058501600052886000209260005b8181106136725750936006938a9693600193836135f79a9810613659575b505050811b0160058201556135d2565b015160001960f88460031b161c191690558a8080613649565b828401518555899850600190940193928a01928a0161362b565b600584016000526020600020601f840160051c810191602085106136cd575b601f0160051c01905b8181106136c15750613591565b600081556001016136b4565b90915081906136ab565b015190508680613552565b600486016000908152602081209350601f198516905b818110613737575090846001959493921061371e575b505050811b01600483015561356a565b015160001960f88460031b161c1916905586808061370e565b929360206001819287860151815501950193016136f8565b909150600485016000526020600020601f840160051c81016020851061379b575b90849392915b601f830160051c8201811061378c57505061353b565b60008155859450600101613776565b5080613770565b0151905087806134fa565b600387016000908152602081209350601f198516905b81811061380257509084600195949392106137e9575b505050811b016003840155613512565b015160001960f88460031b161c191690558780806137d9565b929360206001819287860151815501950193016137c3565b909150600386016000526020600020601f840160051c810160208510613866575b90849392915b601f830160051c820181106138575750506134e3565b60008155859450600101613841565b508061383b565b0151905088806134a2565b600288016000908152602081209350601f198516905b8181106138cd57509084600195949392106138b4575b505050811b0160028501556134ba565b015160001960f88460031b161c191690558880806138a4565b9293602060018192878601518155019501930161388e565b909150600287016000526020600020601f840160051c810160208510613931575b90849392915b601f830160051c8201811061392257505061348b565b6000815585945060010161390c565b5080613906565b90508801518961344b565b91506001870160005260206000206000925b8a601f198416851061399a57506001935082601f19811610613981575b5050811b016001860155613462565b8a015160001960f88460031b161c191690558980613972565b810151825560209384019360019092019101613955565b600187016000526020600020601f830160051c8101602084106139f1575b601f830160051c820181106139e5575050613434565b600081556001016139cf565b50806139cf565b60405162461bcd60e51b815260206004820152601d60248201527f436f6d6d756e697479206e616d6520616c7265616479206578697374730000006044820152606490fd5b3461024c57602036600319011261024c576004359063ffffffff60e01b821680920361024c57602091632483248360e11b8114908115613a7f575b5015158152f35b6380ac58cd60e01b811491508115613ab1575b8115613aa0575b5083613a78565b6301ffc9a760e01b14905083613a99565b635b5e139f60e01b81149150613a92565b606081019081106001600160401b038211176118a157604052565b602081019081106001600160401b038211176118a157604052565b604081019081106001600160401b038211176118a157604052565b90601f801991011681019081106001600160401b038211176118a157604052565b6001600160401b0381116118a157601f01601f191660200190565b929192613b5b82613b34565b91613b696040519384613b13565b82948184528183011161024c578281602093846000960137010152565b9080601f8301121561024c57816020613ba193359101613b4f565b90565b60005b838110613bb75750506000910152565b8181015183820152602001613ba7565b90602091613be081518092818552858086019101613ba4565b601f01601f1916010190565b600435906001600160a01b038216820361024c57565b602435906001600160a01b038216820361024c57565b90600182811c92168015613c48575b6020831014613c3257565b634e487b7160e01b600052602260045260246000fd5b91607f1691613c27565b9060405191826000825492613c6684613c18565b908184526001948581169081600014613cd55750600114613c92575b5050613c9092500383613b13565b565b9093915060005260209081600020936000915b818310613cbd575050613c9093508201013880613c82565b85548884018501529485019487945091830191613ca5565b915050613c9094506020925060ff191682840152151560051b8201013880613c82565b606090600319011261024c576001600160a01b0390600435828116810361024c5791602435908116810361024c579060443590565b90815180825260208080930193019160005b828110613d4d575050505090565b835185529381019392810192600101613d3f565b908082519081815260208091019281808460051b8301019501936000915b848310613d8f5750505050505090565b9091929394958480613dad600193601f198682030187528a51613bc7565b9801930193019194939290613d7f565b90815180825260208080930193019160005b828110613ddd575050505090565b83516001600160a01b031685529381019392810192600101613dcf565b908082519081815260208091019281808460051b8301019501936000915b848310613e285750505050505090565b9091929394958480613e46600193601f198682030187528a51613d61565b9801930193019194939290613e18565b939060c09592613e76613e84929a9998959a60e0885260e0880190613bc7565b908682036020880152613bc7565b60408501989098526001600160a01b03166060840152608083015260a08201520152565b6001600160a01b03918216929091831561402e57600092828452826020956002875260409684888820541696879133151580613f98575b509060027fddf252ad1be2c89b69c2b068fc378daa952ba7f163c4a11628f55a4df523b3ef9284613f65575b858352600381528b8320805460010190558683525289812080546001600160a01b0319168517905580a41692838303613f445750505050565b6064945051926364283d7b60e01b8452600484015260248301526044820152fd5b600087815260046020526040902080546001600160a01b0319169055848352600381528b83208054600019019055613f0b565b91939450915080613fed575b15613fb457859291879138613edf565b878688613fd1576024915190637e27328960e01b82526004820152fd5b604491519063177e802f60e01b82523360048301526024820152fd5b503387148015614012575b80613fa45750858252600481523385898420541614613fa4565b5086825260058152878220338352815260ff8883205416613ff8565b604051633250574960e11b815260006004820152602490fd5b6000818152600260205260409020546001600160a01b031690811561406a575090565b60249060405190637e27328960e01b82526004820152fd5b909192833b614093575b5050505050565b604051630a85bd0160e11b8082526001600160a01b0393841660048301529383166024820152604481019190915260806064820152602095919093169390919083906140e3906084830190613bc7565b039285816000958187895af184918161418d575b50614157575050503d60001461414f573d61411181613b34565b9061411f6040519283613b13565b81528091843d92013e5b8051928361414a57604051633250574960e11b815260048101849052602490fd5b019050fd5b506060614129565b919450915063ffffffff60e01b16036141755750388080808061408c565b60249060405190633250574960e11b82526004820152fd5b9091508681813d83116141ca575b6141a58183613b13565b810103126141c657516001600160e01b0319811681036141c65790386140f7565b8480fd5b503d61419b565b604051906141de82613af8565b6002825260203681840137565b6000198114610c015760010190565b1561420157565b60405162461bcd60e51b8152602060048201526014602482015273125b9d985b1a590818dbdb5b5d5b9a5d1e48125160621b6044820152606490fd5b80548210156126885760005260206000200190600090565b8054600160401b8110156118a1576142729160018201815561423d565b819291549060031b91821b91600019901b1916179055565b1561429157565b60405162461bcd60e51b815260206004820152601860248201527f436f6d6d756e69747920646f6573206e6f7420657869737400000000000000006044820152606490fd5b9060405191828154918282526020928383019160005283600020936000905b82821061430b57505050613c9092500383613b13565b8554845260019586019588955093810193909101906142f5565b1561432c57565b60405162461bcd60e51b815260206004820152601060248201526f125b9d985b1a5908195d995b9d08125160821b6044820152606490fd5b6001600160401b0381116118a15760051b60200190565b91908201809211610c0157565b90600a918281510361491b5761439c6141d1565b60005b600281106148f057506143b190614967565b6143b96141d1565b60035b600581106148b857506143ce90614967565b9060409283516143dd81613af8565b60049687825260209283368185013760065b8281106148635750505061440290614967565b93600183101580614858575b156148275760018410158061481c575b156147e9576107b285106147a6576002840361475d57600385161580614751575b8015614745575b1561473c5760ff601d5b165b83116146ed576107b1198501948086116146d8576301e13380958681029681880414901517156146d8576107b01981018181116146c35760021c62015180968782029180830489149015171561466f57906144ac9161437b565b9161076c19820182811161466f57606490048781029080820489149015171561466f5783039283116146c3576106401982019282841161466f5761019080940490888202918083048a149015171561469957906145089161437b565b9080519461018086018681106001600160401b038211176146ae57825260008652601f90860152603b90850152605a606085015260786080850152609760a085015260b560c085015260d460e085015260f361010085015261011161012085015261013061014085015261014e6101608501526000199386850187811161469957600c8110156146845760051b0151908782029180830489149015171561466f576002916145b59161437b565b95119182614639575b5050614613575b81019081116145fe578281029281840414901517156145e957613ba192935061437b565b601184634e487b7160e01b6000525260246000fd5b601185634e487b7160e01b6000525260246000fd5b9183810180911161462457916145c5565b601186634e487b7160e01b6000525260246000fd5b600382161592509082614662575b8215614657575b505038806145be565b06159050388061464e565b6064810615159250614647565b60118a634e487b7160e01b6000525260246000fd5b60328b634e487b7160e01b6000525260246000fd5b60118b634e487b7160e01b6000525260246000fd5b60418c634e487b7160e01b6000525260246000fd5b601189634e487b7160e01b6000525260246000fd5b601188634e487b7160e01b6000525260246000fd5b5162461bcd60e51b8152808701919091526024808201527f496e76616c69642064617920666f7220676976656e206d6f6e746820616e64206044820152633cb2b0b960e11b6064820152608490fd5b60ff601c614450565b50610190850615614446565b5060648506151561443f565b868414801561479c575b8015614792575b8015614788575b1561478157601e614452565b601f614452565b50600b8414614775565b506009841461476e565b5060068414614767565b5162461bcd60e51b815280870191909152601a60248201527f59656172206d7573742062652031393730206f72206c617465720000000000006044820152606490fd5b5162461bcd60e51b815280870191909152600d60248201526c092dcecc2d8d2c840dadedce8d609b1b6044820152606490fd5b50600c84111561441e565b5162461bcd60e51b815280870191909152600b60248201526a496e76616c69642064617960a81b6044820152606490fd5b50601f83111561440e565b6001600160f81b03196148768284614956565b51600519830191168282116148a3579061489861489e939260001a9187614956565b536141eb565b6143ef565b60118c634e487b7160e01b6000525260246000fd5b6001600160f81b03196148cb8286614956565b5116906002198101818111610c01576148986148eb9360001a9185614956565b6143bc565b614916906001600160f81b03196149078286614956565b511660001a6148988285614956565b61439f565b60405162461bcd60e51b8152602060048201526013602482015272125b9d985b1a590819185d1948199bdc9b585d606a1b6044820152606490fd5b908151811015612688570160200190565b90600091825b8151841015614a2f576149808483614956565b51603060f891821c101580614a18575b156149df57600a91828102928184041490151715610c0157602f19906149b68685614956565b51901c0160ff91828211610c01576149d9926149d392169061437b565b936141eb565b9261496d565b60405162461bcd60e51b815260206004820152601160248201527024b73b30b634b21031b430b930b1ba32b960791b6044820152606490fd5b506039614a258685614956565b51821c1115614990565b925050565b8015610c01576000190190565b600092918154614a5081613c18565b92600191808316908115614aa95750600114614a6d575b50505050565b90919293945060005260209081600020906000915b858310614a985750505050019038808080614a67565b805485840152918301918101614a82565b60ff1916845250505081151590910201915038808080614a67565b805115614bc8578051600291828201809211610c015760039182900480841b94906001600160fe1b03811603610c015792614b17614b0186613b34565b95614b0f6040519788613b13565b808752613b34565b6020860190601f190136823793829183518401906020820192835194600085525b838110614b77575050505052510680600114614b6457600214614b59575090565b603d90600019015390565b50603d9081600019820153600119015390565b87600491999293949901918251600190603f9082828260121c16880101518453828282600c1c16880101518385015382828260061c1688010151888501531685010151898201530197929190614b38565b5050604051614bd681613add565b6000815290565b6301e13380808204916107b28301809311610c0157069062278d009081830492600192838501809511610c01576201518091060490828201809211610c015760405193614c2985613af8565b600a855260209182860194833687378651156126885760309081875387518110156126885790607860218901536009915b808311614d2557505050614ce25792602292614cd3614c9c9693614c89614c83613ba198614e53565b93614e53565b9360405198899651809284890190613ba4565b850192602d60f81b938483820152614cbd8251809385602185019101613ba4565b0192602184015283519384918785019101613ba4565b01036002810184520182613b13565b6064826040519062461bcd60e51b825280600483015260248201527f537472696e67733a20686578206c656e67746820696e73756666696369656e746044820152fd5b909192600f8116830190818411614d6557614d5e9160f81b6001600160f81b03191660001a614d54868c614956565b5360041c93614a34565b9190614c5a565b60246000634e487b7160e01b81526011600452fd5b60405190608082018281106001600160401b038211176118a1576040526042825260208201606036823782511561268857603080915382516001908110156126885790607860218501536041915b808311614e1d57505050614dd95790565b606460405162461bcd60e51b815260206004820152602060248201527f537472696e67733a20686578206c656e67746820696e73756666696369656e746044820152fd5b909192600f8116830190818411614d6557614e4c9160f81b6001600160f81b03191660001a614d548688614956565b9190614dc8565b60405190614e6082613af8565b6006825260208201602036823782511561268857603080915382516001908110156126885790607860218501536005915b808311614ea257505050614dd95790565b909192600f8116830190818411614d6557614ed19160f81b6001600160f81b03191660001a614d548688614956565b9190614e91565b90614ee282614364565b614eef6040519182613b13565b8281528092614f00601f1991614364565b0190602036910137565b60005b828110614f1957505050565b606082820152602001614f0d565b90613c90614f3483614364565b614f416040519182613b13565b83815260208194614f54601f1991614364565b019101614f0a565b80518210156126885760209160051b01019056fea2646970667358221220e3d6570cd726f095ae2b230b8884de16ec52389ec2bda21dbbd54f18988fafb964736f6c63430008140033",
  "devdoc": {
    "errors": {
      "ERC721IncorrectOwner(address,uint256,address)": [
        {
          "details": "Indicates an error related to the ownership over a particular token. Used in transfers.",
          "params": {
            "owner": "Address of the current owner of a token.",
            "sender": "Address whose tokens are being transferred.",
            "tokenId": "Identifier number of a token."
          }
        }
      ],
      "ERC721InsufficientApproval(address,uint256)": [
        {
          "details": "Indicates a failure with the `operator`s approval. Used in transfers.",
          "params": {
            "operator": "Address that may be allowed to operate on tokens without being their owner.",
            "tokenId": "Identifier number of a token."
          }
        }
      ],
      "ERC721InvalidApprover(address)": [
        {
          "details": "Indicates a failure with the `approver` of a token to be approved. Used in approvals.",
          "params": {
            "approver": "Address initiating an approval operation."
          }
        }
      ],
      "ERC721InvalidOperator(address)": [
        {
          "details": "Indicates a failure with the `operator` to be approved. Used in approvals.",
          "params": {
            "operator": "Address that may be allowed to operate on tokens without being their owner."
          }
        }
      ],
      "ERC721InvalidOwner(address)": [
        {
          "details": "Indicates that an address can't be an owner. For example, `address(0)` is a forbidden owner in ERC-20. Used in balance queries.",
          "params": {
            "owner": "Address of the current owner of a token."
          }
        }
      ],
      "ERC721InvalidReceiver(address)": [
        {
          "details": "Indicates a failure with the token `receiver`. Used in transfers.",
          "params": {
            "receiver": "Address to which tokens are being transferred."
          }
        }
      ],
      "ERC721InvalidSender(address)": [
        {
          "details": "Indicates a failure with the token `sender`. Used in transfers.",
          "params": {
            "sender": "Address whose tokens are being transferred."
          }
        }
      ],
      "ERC721NonexistentToken(uint256)": [
        {
          "details": "Indicates a `tokenId` whose `owner` is the zero address.",
          "params": {
            "tokenId": "Identifier number of a token."
          }
        }
      ]
    },
    "events": {
      "Approval(address,address,uint256)": {
        "details": "Emitted when `owner` enables `approved` to manage the `tokenId` token."
      },
      "ApprovalForAll(address,address,bool)": {
        "details": "Emitted when `owner` enables or disables (`approved`) `operator` to manage all of its assets."
      },
      "BatchMetadataUpdate(uint256,uint256)": {
        "details": "This event emits when the metadata of a range of tokens is changed. So that the third-party platforms such as NFT market could timely update the images and related attributes of the NFTs."
      },
      "MetadataUpdate(uint256)": {
        "details": "This event emits when the metadata of a token is changed. So that the third-party platforms such as NFT market could timely update the images and related attributes of the NFT."
      },
      "Transfer(address,address,uint256)": {
        "details": "Emitted when `tokenId` token is transferred from `from` to `to`."
      }
    },
    "kind": "dev",
    "methods": {
      "approve(address,uint256)": {
        "details": "See {IERC721-approve}."
      },
      "balanceOf(address)": {
        "details": "See {IERC721-balanceOf}."
      },
      "getApproved(uint256)": {
        "details": "See {IERC721-getApproved}."
      },
      "isApprovedForAll(address,address)": {
        "details": "See {IERC721-isApprovedForAll}."
      },
      "name()": {
        "details": "See {IERC721Metadata-name}."
      },
      "ownerOf(uint256)": {
        "details": "See {IERC721-ownerOf}."
      },
      "safeTransferFrom(address,address,uint256)": {
        "details": "See {IERC721-safeTransferFrom}."
      },
      "safeTransferFrom(address,address,uint256,bytes)": {
        "details": "See {IERC721-safeTransferFrom}."
      },
      "setApprovalForAll(address,bool)": {
        "details": "See {IERC721-setApprovalForAll}."
      },
      "supportsInterface(bytes4)": {
        "details": "See {IERC165-supportsInterface}"
      },
      "symbol()": {
        "details": "See {IERC721Metadata-symbol}."
      },
      "tokenURI(uint256)": {
        "details": "See {IERC721Metadata-tokenURI}."
      },
      "transferFrom(address,address,uint256)": {
        "details": "See {IERC721-transferFrom}."
      }
    },
    "version": 1
  },
  "userdoc": {
    "kind": "user",
    "methods": {},
    "version": 1
  },
  "storageLayout": {
    "storage": [
      {
        "astId": 201,
        "contract": "contracts/YourContract.sol:YourContract",
        "label": "_name",
        "offset": 0,
        "slot": "0",
        "type": "t_string_storage"
      },
      {
        "astId": 203,
        "contract": "contracts/YourContract.sol:YourContract",
        "label": "_symbol",
        "offset": 0,
        "slot": "1",
        "type": "t_string_storage"
      },
      {
        "astId": 207,
        "contract": "contracts/YourContract.sol:YourContract",
        "label": "_owners",
        "offset": 0,
        "slot": "2",
        "type": "t_mapping(t_uint256,t_address)"
      },
      {
        "astId": 211,
        "contract": "contracts/YourContract.sol:YourContract",
        "label": "_balances",
        "offset": 0,
        "slot": "3",
        "type": "t_mapping(t_address,t_uint256)"
      },
      {
        "astId": 215,
        "contract": "contracts/YourContract.sol:YourContract",
        "label": "_tokenApprovals",
        "offset": 0,
        "slot": "4",
        "type": "t_mapping(t_uint256,t_address)"
      },
      {
        "astId": 221,
        "contract": "contracts/YourContract.sol:YourContract",
        "label": "_operatorApprovals",
        "offset": 0,
        "slot": "5",
        "type": "t_mapping(t_address,t_mapping(t_address,t_bool))"
      },
      {
        "astId": 1288,
        "contract": "contracts/YourContract.sol:YourContract",
        "label": "_tokenURIs",
        "offset": 0,
        "slot": "6",
        "type": "t_mapping(t_uint256,t_string_storage)"
      },
      {
        "astId": 5618,
        "contract": "contracts/YourContract.sol:YourContract",
        "label": "_tokenIds",
        "offset": 0,
        "slot": "7",
        "type": "t_struct(Counter)5548_storage"
      },
      {
        "astId": 5723,
        "contract": "contracts/YourContract.sol:YourContract",
        "label": "communities",
        "offset": 0,
        "slot": "8",
        "type": "t_mapping(t_uint256,t_struct(Community)5642_storage)"
      },
      {
        "astId": 5727,
        "contract": "contracts/YourContract.sol:YourContract",
        "label": "communityNameToId",
        "offset": 0,
        "slot": "9",
        "type": "t_mapping(t_string_memory_ptr,t_uint256)"
      },
      {
        "astId": 5732,
        "contract": "contracts/YourContract.sol:YourContract",
        "label": "events",
        "offset": 0,
        "slot": "10",
        "type": "t_mapping(t_uint256,t_struct(Event)5677_storage)"
      },
      {
        "astId": 5737,
        "contract": "contracts/YourContract.sol:YourContract",
        "label": "users",
        "offset": 0,
        "slot": "11",
        "type": "t_mapping(t_address,t_struct(User)5718_storage)"
      },
      {
        "astId": 5742,
        "contract": "contracts/YourContract.sol:YourContract",
        "label": "bounties",
        "offset": 0,
        "slot": "12",
        "type": "t_mapping(t_uint256,t_struct(Bounty)5699_storage)"
      },
      {
        "astId": 5744,
        "contract": "contracts/YourContract.sol:YourContract",
        "label": "communityCounter",
        "offset": 0,
        "slot": "13",
        "type": "t_uint256"
      },
      {
        "astId": 5746,
        "contract": "contracts/YourContract.sol:YourContract",
        "label": "eventCounter",
        "offset": 0,
        "slot": "14",
        "type": "t_uint256"
      },
      {
        "astId": 5748,
        "contract": "contracts/YourContract.sol:YourContract",
        "label": "bountyCounter",
        "offset": 0,
        "slot": "15",
        "type": "t_uint256"
      }
    ],
    "types": {
      "t_address": {
        "encoding": "inplace",
        "label": "address",
        "numberOfBytes": "20"
      },
      "t_array(t_struct(Sponsor)5684_storage)dyn_storage": {
        "base": "t_struct(Sponsor)5684_storage",
        "encoding": "dynamic_array",
        "label": "struct YourContract.Sponsor[]",
        "numberOfBytes": "32"
      },
      "t_array(t_uint256)dyn_storage": {
        "base": "t_uint256",
        "encoding": "dynamic_array",
        "label": "uint256[]",
        "numberOfBytes": "32"
      },
      "t_bool": {
        "encoding": "inplace",
        "label": "bool",
        "numberOfBytes": "1"
      },
      "t_mapping(t_address,t_bool)": {
        "encoding": "mapping",
        "key": "t_address",
        "label": "mapping(address => bool)",
        "numberOfBytes": "32",
        "value": "t_bool"
      },
      "t_mapping(t_address,t_mapping(t_address,t_bool))": {
        "encoding": "mapping",
        "key": "t_address",
        "label": "mapping(address => mapping(address => bool))",
        "numberOfBytes": "32",
        "value": "t_mapping(t_address,t_bool)"
      },
      "t_mapping(t_address,t_struct(User)5718_storage)": {
        "encoding": "mapping",
        "key": "t_address",
        "label": "mapping(address => struct YourContract.User)",
        "numberOfBytes": "32",
        "value": "t_struct(User)5718_storage"
      },
      "t_mapping(t_address,t_uint256)": {
        "encoding": "mapping",
        "key": "t_address",
        "label": "mapping(address => uint256)",
        "numberOfBytes": "32",
        "value": "t_uint256"
      },
      "t_mapping(t_string_memory_ptr,t_uint256)": {
        "encoding": "mapping",
        "key": "t_string_memory_ptr",
        "label": "mapping(string => uint256)",
        "numberOfBytes": "32",
        "value": "t_uint256"
      },
      "t_mapping(t_uint256,t_address)": {
        "encoding": "mapping",
        "key": "t_uint256",
        "label": "mapping(uint256 => address)",
        "numberOfBytes": "32",
        "value": "t_address"
      },
      "t_mapping(t_uint256,t_string_storage)": {
        "encoding": "mapping",
        "key": "t_uint256",
        "label": "mapping(uint256 => string)",
        "numberOfBytes": "32",
        "value": "t_string_storage"
      },
      "t_mapping(t_uint256,t_struct(Bounty)5699_storage)": {
        "encoding": "mapping",
        "key": "t_uint256",
        "label": "mapping(uint256 => struct YourContract.Bounty)",
        "numberOfBytes": "32",
        "value": "t_struct(Bounty)5699_storage"
      },
      "t_mapping(t_uint256,t_struct(Community)5642_storage)": {
        "encoding": "mapping",
        "key": "t_uint256",
        "label": "mapping(uint256 => struct YourContract.Community)",
        "numberOfBytes": "32",
        "value": "t_struct(Community)5642_storage"
      },
      "t_mapping(t_uint256,t_struct(Event)5677_storage)": {
        "encoding": "mapping",
        "key": "t_uint256",
        "label": "mapping(uint256 => struct YourContract.Event)",
        "numberOfBytes": "32",
        "value": "t_struct(Event)5677_storage"
      },
      "t_mapping(t_uint256,t_uint256)": {
        "encoding": "mapping",
        "key": "t_uint256",
        "label": "mapping(uint256 => uint256)",
        "numberOfBytes": "32",
        "value": "t_uint256"
      },
      "t_string_memory_ptr": {
        "encoding": "bytes",
        "label": "string",
        "numberOfBytes": "32"
      },
      "t_string_storage": {
        "encoding": "bytes",
        "label": "string",
        "numberOfBytes": "32"
      },
      "t_struct(Bounty)5699_storage": {
        "encoding": "inplace",
        "label": "struct YourContract.Bounty",
        "members": [
          {
            "astId": 5686,
            "contract": "contracts/YourContract.sol:YourContract",
            "label": "title",
            "offset": 0,
            "slot": "0",
            "type": "t_string_storage"
          },
          {
            "astId": 5688,
            "contract": "contracts/YourContract.sol:YourContract",
            "label": "description",
            "offset": 0,
            "slot": "1",
            "type": "t_string_storage"
          },
          {
            "astId": 5690,
            "contract": "contracts/YourContract.sol:YourContract",
            "label": "totalRequiredAmount",
            "offset": 0,
            "slot": "2",
            "type": "t_uint256"
          },
          {
            "astId": 5692,
            "contract": "contracts/YourContract.sol:YourContract",
            "label": "sponsorAddress",
            "offset": 0,
            "slot": "3",
            "type": "t_address"
          },
          {
            "astId": 5694,
            "contract": "contracts/YourContract.sol:YourContract",
            "label": "communityId",
            "offset": 0,
            "slot": "4",
            "type": "t_uint256"
          },
          {
            "astId": 5696,
            "contract": "contracts/YourContract.sol:YourContract",
            "label": "sponsoredAmount",
            "offset": 0,
            "slot": "5",
            "type": "t_uint256"
          },
          {
            "astId": 5698,
            "contract": "contracts/YourContract.sol:YourContract",
            "label": "numberOfSponsoringCommunities",
            "offset": 0,
            "slot": "6",
            "type": "t_uint256"
          }
        ],
        "numberOfBytes": "224"
      },
      "t_struct(Community)5642_storage": {
        "encoding": "inplace",
        "label": "struct YourContract.Community",
        "members": [
          {
            "astId": 5620,
            "contract": "contracts/YourContract.sol:YourContract",
            "label": "id",
            "offset": 0,
            "slot": "0",
            "type": "t_uint256"
          },
          {
            "astId": 5622,
            "contract": "contracts/YourContract.sol:YourContract",
            "label": "name",
            "offset": 0,
            "slot": "1",
            "type": "t_string_storage"
          },
          {
            "astId": 5624,
            "contract": "contracts/YourContract.sol:YourContract",
            "label": "description",
            "offset": 0,
            "slot": "2",
            "type": "t_string_storage"
          },
          {
            "astId": 5626,
            "contract": "contracts/YourContract.sol:YourContract",
            "label": "instagramHandle",
            "offset": 0,
            "slot": "3",
            "type": "t_string_storage"
          },
          {
            "astId": 5628,
            "contract": "contracts/YourContract.sol:YourContract",
            "label": "linkedinHandle",
            "offset": 0,
            "slot": "4",
            "type": "t_string_storage"
          },
          {
            "astId": 5630,
            "contract": "contracts/YourContract.sol:YourContract",
            "label": "twitterHandle",
            "offset": 0,
            "slot": "5",
            "type": "t_string_storage"
          },
          {
            "astId": 5632,
            "contract": "contracts/YourContract.sol:YourContract",
            "label": "creatorAddress",
            "offset": 0,
            "slot": "6",
            "type": "t_address"
          },
          {
            "astId": 5634,
            "contract": "contracts/YourContract.sol:YourContract",
            "label": "followerCount",
            "offset": 0,
            "slot": "7",
            "type": "t_uint256"
          },
          {
            "astId": 5638,
            "contract": "contracts/YourContract.sol:YourContract",
            "label": "followers",
            "offset": 0,
            "slot": "8",
            "type": "t_mapping(t_address,t_bool)"
          },
          {
            "astId": 5641,
            "contract": "contracts/YourContract.sol:YourContract",
            "label": "eventIds",
            "offset": 0,
            "slot": "9",
            "type": "t_array(t_uint256)dyn_storage"
          }
        ],
        "numberOfBytes": "320"
      },
      "t_struct(Counter)5548_storage": {
        "encoding": "inplace",
        "label": "struct YourContract.Counter",
        "members": [
          {
            "astId": 5547,
            "contract": "contracts/YourContract.sol:YourContract",
            "label": "_value",
            "offset": 0,
            "slot": "0",
            "type": "t_uint256"
          }
        ],
        "numberOfBytes": "32"
      },
      "t_struct(Event)5677_storage": {
        "encoding": "inplace",
        "label": "struct YourContract.Event",
        "members": [
          {
            "astId": 5644,
            "contract": "contracts/YourContract.sol:YourContract",
            "label": "id",
            "offset": 0,
            "slot": "0",
            "type": "t_uint256"
          },
          {
            "astId": 5646,
            "contract": "contracts/YourContract.sol:YourContract",
            "label": "name",
            "offset": 0,
            "slot": "1",
            "type": "t_string_storage"
          },
          {
            "astId": 5648,
            "contract": "contracts/YourContract.sol:YourContract",
            "label": "description",
            "offset": 0,
            "slot": "2",
            "type": "t_string_storage"
          },
          {
            "astId": 5650,
            "contract": "contracts/YourContract.sol:YourContract",
            "label": "startTime",
            "offset": 0,
            "slot": "3",
            "type": "t_uint256"
          },
          {
            "astId": 5652,
            "contract": "contracts/YourContract.sol:YourContract",
            "label": "endTime",
            "offset": 0,
            "slot": "4",
            "type": "t_uint256"
          },
          {
            "astId": 5654,
            "contract": "contracts/YourContract.sol:YourContract",
            "label": "location",
            "offset": 0,
            "slot": "5",
            "type": "t_string_storage"
          },
          {
            "astId": 5656,
            "contract": "contracts/YourContract.sol:YourContract",
            "label": "capacity",
            "offset": 0,
            "slot": "6",
            "type": "t_uint256"
          },
          {
            "astId": 5658,
            "contract": "contracts/YourContract.sol:YourContract",
            "label": "availableSeats",
            "offset": 0,
            "slot": "7",
            "type": "t_uint256"
          },
          {
            "astId": 5660,
            "contract": "contracts/YourContract.sol:YourContract",
            "label": "ticketPrice",
            "offset": 0,
            "slot": "8",
            "type": "t_uint256"
          },
          {
            "astId": 5662,
            "contract": "contracts/YourContract.sol:YourContract",
            "label": "creatorAddress",
            "offset": 0,
            "slot": "9",
            "type": "t_address"
          },
          {
            "astId": 5664,
            "contract": "contracts/YourContract.sol:YourContract",
            "label": "creatorCommunityId",
            "offset": 0,
            "slot": "10",
            "type": "t_uint256"
          },
          {
            "astId": 5666,
            "contract": "contracts/YourContract.sol:YourContract",
            "label": "bountyTitle",
            "offset": 0,
            "slot": "11",
            "type": "t_string_storage"
          },
          {
            "astId": 5668,
            "contract": "contracts/YourContract.sol:YourContract",
            "label": "bountyDescription",
            "offset": 0,
            "slot": "12",
            "type": "t_string_storage"
          },
          {
            "astId": 5670,
            "contract": "contracts/YourContract.sol:YourContract",
            "label": "bountyAmount",
            "offset": 0,
            "slot": "13",
            "type": "t_uint256"
          },
          {
            "astId": 5672,
            "contract": "contracts/YourContract.sol:YourContract",
            "label": "totalSponsored",
            "offset": 0,
            "slot": "14",
            "type": "t_uint256"
          },
          {
            "astId": 5676,
            "contract": "contracts/YourContract.sol:YourContract",
            "label": "sponsors",
            "offset": 0,
            "slot": "15",
            "type": "t_array(t_struct(Sponsor)5684_storage)dyn_storage"
          }
        ],
        "numberOfBytes": "512"
      },
      "t_struct(Sponsor)5684_storage": {
        "encoding": "inplace",
        "label": "struct YourContract.Sponsor",
        "members": [
          {
            "astId": 5679,
            "contract": "contracts/YourContract.sol:YourContract",
            "label": "userAddress",
            "offset": 0,
            "slot": "0",
            "type": "t_address"
          },
          {
            "astId": 5681,
            "contract": "contracts/YourContract.sol:YourContract",
            "label": "communityId",
            "offset": 0,
            "slot": "1",
            "type": "t_uint256"
          },
          {
            "astId": 5683,
            "contract": "contracts/YourContract.sol:YourContract",
            "label": "amountSponsored",
            "offset": 0,
            "slot": "2",
            "type": "t_uint256"
          }
        ],
        "numberOfBytes": "96"
      },
      "t_struct(User)5718_storage": {
        "encoding": "inplace",
        "label": "struct YourContract.User",
        "members": [
          {
            "astId": 5701,
            "contract": "contracts/YourContract.sol:YourContract",
            "label": "userAddress",
            "offset": 0,
            "slot": "0",
            "type": "t_address"
          },
          {
            "astId": 5704,
            "contract": "contracts/YourContract.sol:YourContract",
            "label": "fundedEvents",
            "offset": 0,
            "slot": "1",
            "type": "t_array(t_uint256)dyn_storage"
          },
          {
            "astId": 5707,
            "contract": "contracts/YourContract.sol:YourContract",
            "label": "joinedCommunities",
            "offset": 0,
            "slot": "2",
            "type": "t_array(t_uint256)dyn_storage"
          },
          {
            "astId": 5710,
            "contract": "contracts/YourContract.sol:YourContract",
            "label": "tickets",
            "offset": 0,
            "slot": "3",
            "type": "t_array(t_uint256)dyn_storage"
          },
          {
            "astId": 5713,
            "contract": "contracts/YourContract.sol:YourContract",
            "label": "createdEvents",
            "offset": 0,
            "slot": "4",
            "type": "t_array(t_uint256)dyn_storage"
          },
          {
            "astId": 5717,
            "contract": "contracts/YourContract.sol:YourContract",
            "label": "amountFunded",
            "offset": 0,
            "slot": "5",
            "type": "t_mapping(t_uint256,t_uint256)"
          }
        ],
        "numberOfBytes": "192"
      },
      "t_uint256": {
        "encoding": "inplace",
        "label": "uint256",
        "numberOfBytes": "32"
      }
    }
  }
}